:100000000C94FD000C94F9160C9420170C944717CF
:100010000C946E170C9425010C9425010C949517E3
:100020000C9425010C94AB1C0C940A160C94A61489
:100030000C9425010C9425010C9425010C942501A8
:100040000C9425010C9425010C9425010C94250198
:100050000C9425010C9425010C9425010C94BC17DB
:100060000C9425010C9425010C9425010C94250178
:100070000C9425010C9425010C9425010C94250168
:100080000C9400120C9425010C9425010C9425016C
:100090000C942A090C9425010C9425010C9425013B
:1000A0000C9425010C9425010C9425012119261985
:1000B0002B1935193F1989198919891949195319A2
:1000C0005D196719741989197C19AA19AD199C1938
:1000D000A019A619CE19CE19CE19B119B519B91989
:1000E000BF19C319CE19C919080B00020202010079
:1000F000090400000102020000052400100105248B
:1001000001010104240206052406000107058103FC
:1001100010004009040100020A0000000705020265
:10012000400000070583024000000312010002EFB7
:100130000201404123368000010102030141726443
:1001400075696E6F204C4C430041726475696E6F27
:10015000204C656F6E6172646F000403090407062A
:1001600005040100080A0B0C0D090000000200093B
:100170000F0000030401000C00000000000000005C
:100180000000000000000000000408020110408090
:10019000401020408040800802040180402010026E
:1001A00001108010204040200404040404030405CE
:1001B0000202020204030202020206060606060604
:1001C00004040202020404000000002300260029A7
:1001D000002C002F0000000000250028002B002E1E
:1001E00000310000000000240027002A002D00300C
:1001F0000000A904E50BDE0CB00411241FBECFEFF4
:10020000DAE0DEBFCDBF12E0A0E0B1E0E0E0F5E46F
:1002100002C005900D92AC32B107D9F725E0ACE2EF
:10022000B2E001C01D92AD32B207E1F710E0CCEFB1
:10023000D0E004C02197FE010E947F21C93FD10771
:10024000C9F70E94F40C0C9473220C940000CF9216
:10025000DF92EF92FF920F931F93E82FF92F05C0C3
:10026000015011092109310961F1908196239417F8
:10027000B9F305C0015011092109310911F190812B
:1002800096239413F7CFC12CD12CE12CF12C0AC06A
:100290008FEFC81AD80AE80AF80A0C151D052E05B2
:1002A0003F0579F080818623841791F36C2D7D2D95
:1002B0008E2D9F2D1F910F91FF90EF90DF90CF908B
:1002C000089560E070E080E090E01F910F91FF9052
:1002D000EF90DF90CF90089580913A020C94EB114B
:1002E000E8E3F2E023814781668182810C94551B0B
:1002F000E8E3F2E06481758120E030E0A9018281C9
:100300000C94F10EE8E3F2E02481358146815781B7
:10031000609130027091310282810C94F10EE8E319
:10032000F2E02481358146815781638182810E9478
:10033000631A60934402709345028093460290933F
:10034000470248E050E060E472E08DE594E00C94F0
:10035000350C20913C0230913D0240913E0250917B
:100360003F02211531054105510521F420E432E415
:100370004FE050E060913B0280913A020E94951A52
:100380006093440270934502809346029093470223
:1003900048E050E060E472E08DE594E00C94350CA8
:1003A000E8E3F2E04781668182810E941A1B809314
:1003B000440248E050E060E472E08DE594E00C9483
:1003C000350C8BE790E0A0E0B0E08093440290937E
:1003D0004502A0934602B093470248E050E060E433
:1003E00072E08DE594E00C94350C48E050E060E458
:1003F00072E08DE594E00E94350C10924102089560
:10040000EF92FF920F931F93CF93DF938823B1F066
:1004100008EC12E0E12CF12CC82FD0E0EC16FD0620
:100420006CF448E050E0B8018DE594E00E94350C92
:100430008FEFE81AF80A085F1F4FF0CF80E0DF91D6
:10044000CF911F910F91FF90EF900895CF92DF927F
:10045000EF92FF920F931F93CF93DF938DE594E07C
:100460000E94180CEC01DD27882309F456C048E0EF
:1004700050E068E372E08DE594E00E94CC0E80913C
:10048000380290E024E0959587952A95E1F78770EA
:1004900099278230910589F48DE594E00E94180C2B
:1004A0008823D1F3C80FD11D48E050E060E372E02B
:1004B0008DE594E00E94CC0E2BC004974CF1009186
:1004C0003F0210E08DE594E00E94180C0115110523
:1004D00059F08823B9F3C80FD11D88E4E82E82E0D3
:1004E000F82EC12CD12C03C0882391F0F4CFC01674
:1004F000D10674F448E050E0B7018DE594E00E9425
:10050000CC0E8FEFC81AD80A88E0E80EF11CEFCFA6
:100510008091380287FD0E94F5018C2FDF91CF91E9
:100520001F910F91FF90EF90DF90CF9008958EBDB7
:1005300000000DB407FEFDCF8EB50895CF93DF9375
:10054000EC0161E080913C020E94CF1980913C0255
:10055000888380919703882399F02FB7F89480912E
:100560009703813059F48DB3809395039DB38091A7
:100570009603809589238DBB2FBF02C020939503DE
:1005800081E58CBD1DBCDF91CF910C94BD070F930D
:100590001F93CF93DF938C0160E0FC0180810E9468
:1005A0000B1A81E00E949702C8E3D2E08C810E947E
:1005B00097028D810E9497028E810E9497028F81FF
:1005C0000E94970261E0F8018081DF91CF911F9135
:1005D0000F910C940B1A0F931F93CF93DF938C0101
:1005E00060E0FC0180810E940B1A84E00E94970267
:1005F00080E00E949702C0E4D2E08C8380E00E94F9
:1006000097028D8380E00E9497028E8380E00E9493
:1006100097028F8361E0F80180810E940B1ADF91BD
:10062000CF911F910F910C94F50188E493E00C9405
:10063000EB0288E493E00C94C70288E493E00C9406
:100640009E020F931F93CF93DF938C018DE594E06F
:100650000E94180C8823D1F340E250E068E472E075
:100660008DE594E00E94CC0E60E0F80180810E944C
:100670000B1A82E00E94970280E00E949702C8E471
:10068000D2E089910E949702F2E0C836DF07C9F7ED
:1006900061E0F8018081DF91CF911F910F910C945F
:1006A0000B1A88E493E00C942103CF92DF92EF922F
:1006B000FF920F931F93CF93DF938C0160E0FC01B7
:1006C00080810E940B1A83E00E94970280E00E94C2
:1006D0009702C9E4D3E08AE0C82ED12CE12CF12C9A
:1006E00080E00E9497028993C0922C02D0922D0242
:1006F000E0922E02F0922F02F3E0C936DF0781F775
:1007000061E0F80180810E940B1A40E250E069E448
:1007100073E08DE594E0DF91CF911F910F91FF90F1
:10072000EF90DF90CF900C94350C88E493E00C941C
:100730005503E8E3F2E0638182810C94CF19809144
:100740003A020E943A1A809342020C94F501E8E3BF
:10075000F2E0658184810C940B1A80913A020E9428
:10076000C918809342020C94F501E8E3F2E063813A
:1007700070E082810C94FA18CF93DF93C0E3D2E04B
:10078000288139814A815B816C817D818E819F8145
:100790000E94A81B688379838A839B83DF91CF9112
:1007A0000C94F50185E99AE2ADEEB0E08093440245
:1007B00090934502A0934602B09347020C94F50132
:1007C00080917103813029F480914102816080938E
:1007D000410208951092410210927103F894089515
:1007E0001092410281E080937103789408951092F1
:1007F0004102E8E3F2E0438150E060EE73E0828181
:100800000C94A916E8E3F2E06281848195810C944E
:100810005D2280913D02803139F4E0913C02F0E0AC
:1008200080913A0280A30895803249F4E0913C021D
:10083000F0E080913A0290E091A380A30895803384
:1008400039F4E0913C02F0E080913A02808308950F
:10085000803441F4E0913C02F0E080913A0290E073
:1008600091838083089580913C0290913D020E9483
:1008700055228093420248E050E060E472E08DE54A
:1008800094E00C94350C80913D02803129F4E09184
:100890003C02F0E080A116C0803231F4E0913C02CD
:1008A000F0E080A191A10EC0803329F4E0913C02D8
:1008B000F0E0808107C0803439F4E0913C02F0E040
:1008C000808191818093420248E050E060E472E0D0
:1008D0008DE594E00C94350C80913B02813061F4FD
:1008E00040913C0250913D0260913E0270913F0266
:1008F00084E793E00C94A91D089584E793E00C9499
:10090000521ECF93DF9340913C0250913D0268EC20
:1009100072E084E793E00E94CC0E80934402992712
:100920009C012150310937FF02C0295F3F4F83E00E
:10093000359527958A95E1F7E9012196D0937303C0
:10094000C09372030E94F5018C2FDF91CF910C941C
:10095000000220E043E062E084E793E00C947E1D17
:1009600084E793E00C94251D1092440248E050E087
:1009700060E472E084E793E00C94070D40913C0240
:1009800050913D0268E472E084E793E00E94070D15
:10099000809344020C94F50184E793E00E94541C78
:1009A0008093440248E050E060E472E084E793E022
:1009B0000C94070D84E793E00C943B1C84E793E0D0
:1009C0000E943C1C809344020C94F50180913B02F0
:1009D000282F2F71829586958770813011F0823093
:1009E00071F430E040913C0250913D0260913E0232
:1009F00070913F0284E793E00E949A0D28C08330F3
:100A000071F430E040913C0250913D0260913E0211
:100A100070913F0284E793E00E94AD0D18C08430CE
:100A200071F430E040913C0250913D0260913E02F1
:100A300070913F0284E793E00E949A0E08C08630CE
:100A400041F460913C0284E793E00E94EB1B8093A9
:100A500044020C94F50184E793E00E94CA1B809342
:100A600044020C94F50140E052EC61E070E08DE549
:100A700094E00C94D80C0E942602882399F0E0910F
:100A80003802EF70809139029EE0E99FF001112455
:100A9000E80FF11DEE0FFF1FEC5FFE4F0190F0819C
:100AA000E02D09940895CF92DF92EF92FF92C090CB
:100AB0003C02D0903D02E0903E02F0903F02209137
:100AC0003B0240E052E16AE770E090E0C416D506D0
:100AD000E606F70640F476956795579547959F5F2C
:100AE0009630A1F797E081E0892790913A02992307
:100AF00011F030E501C030E72C70982F9695922BBD
:100B0000932B817020919703222399F04FB7F8948B
:100B100020919703213059F42DB3209395033DB3D1
:100B200020919603209523232DBB4FBF02C04093F5
:100B300095039CBD8DBDFF90EF90DF90CF90089501
:100B400080913C0290E00097C9F0209148022EBDB0
:100B5000E8E4F2E09C012150310941F051810DB4EB
:100B600007FEFDCF4EB55EBD4193F5CFFC01E95BBD
:100B7000FD4F0DB407FEFDCF2EB520830895809163
:100B80009703882361F09FB7F89420919703809191
:100B90009503213019F48DBB9FBF08958FBF089531
:100BA0000C94F30780913C02811103C08CB58062E4
:100BB00002C08CB58F7D8CBD08958CB5837F9091DC
:100BC0003C02892B8CBD089580913C029CB59C7F92
:100BD000282F2370922B9CBD2DB582FB992790F96D
:100BE000822F8E7F892B8DBD08950E94BD0785EAD7
:100BF0008093440248E050E060E472E08DE594E0C8
:100C00000C94350C80913C028EBD00000DB407FEA3
:100C1000FDCF8EB58093440248E050E060E472E07E
:100C20008DE594E00C94350C60913C0270913D028E
:100C300080913E0290913F020E94371848E050E0B8
:100C400060E472E08DE594E00C94350C0E9412187B
:100C5000609344027093450280934602909347024A
:100C600048E050E060E472E08DE594E00C94350CCF
:100C70000E940618609344027093450280934602D6
:100C80009093470248E050E060E472E08DE594E024
:100C90000C94350C8BE790E0A0E0B0E08093440228
:100CA00090934502A0934602B093470248E050E07B
:100CB00060E472E08DE594E00C94350CE0E4F2E041
:100CC0008181826081830895E0E4F2E08083818104
:100CD0008460818308958AE090E0909394038093E8
:100CE000930387E094E00C94470B40913C025091B1
:100CF0003D0260913E0270913F0287E094E00C94C7
:100D0000490B80913B02811106C060913C0287E053
:100D100094E00E944D0B80913B02813041F4609140
:100D20003C0270913D0287E094E00C94570B0895CB
:100D300064E676E087E094E00E94DB0B6EE576E007
:100D400087E094E00C94E00B80913B02811104C099
:100D500087E094E00E94280B80913B02813031F4BF
:100D600060913C0287E094E00E94320B80913B024C
:100D7000823041F460913C0270913D0287E094E042
:100D80000E94450B0C94980660913B0287E094E02A
:100D9000611103C00E94D80B02C00E94590B8093BE
:100DA000440248E050E060E472E08DE594E00C9489
:100DB000350C80913B0281110AC040913D02609147
:100DC0003C0287E094E00E94D00B80934402809123
:100DD0003B02813061F420913E0240913D026091DE
:100DE0003C0287E094E00E94C00B80934402809113
:100DF0003B02823071F440913E0250913F0260917B
:100E00003C0270913D0287E094E00E94D30B8093F6
:100E1000440280913B02833089F420913E0230915C
:100E20003F0240913C0250913D0260913A0270E0D5
:100E300087E094E00E94D60B8093440248E050E0A3
:100E400060E472E08DE594E00C94350CCF92EF9263
:100E50000F931F93E8E3F2E000913002109131020A
:100E60002091320230913302C780E680458164814F
:100E700087E094E00E946C0B8093440248E050E0CD
:100E800060E472E08DE594E01F910F91EF90CF90B8
:100E90000C94350C87E094E00E945A0A8093440237
:100EA00048E050E060E472E08DE594E00C94350C8D
:100EB00087E094E00E94620A8093440248E050E098
:100EC00060E472E08DE594E00C94350C87E094E0EA
:100ED0000C94760A87E094E00C94850A80913B029A
:100EE000811110C060913C0287E094E00E94E90A01
:100EF000A0E0B0E08093440290934502A0934602A4
:100F0000B093470280913B028130C9F4E8E4F2E0FB
:100F100001900020E9F73197AF014854524068E44E
:100F200072E087E094E00E94BC0AA0E0B0E0809309
:100F3000440290934502A0934602B09347028091E9
:100F40003B02823091F442E050E068E472E087E0D6
:100F500094E00E94BC0AA0E0B0E080934402909329
:100F60004502A0934602B093470248E050E060E497
:100F700072E08DE594E00C94350CCF93CFB7F894E4
:100F800080919803811127C0E9EBF1E08491EAE9AF
:100F9000F1E09491E82FF0E0EE0FFF1FED51FE4FCE
:100FA000A591B491EC91E92321F461E081E10E94E3
:100FB0000B1A61E081E10E94CF198CB580618CBD74
:100FC0008CB580648CBD61E08FE00E94CF1961E038
:100FD00080E10E94CF19809198038F5F80939803DE
:100FE000CFBFCF9108959FB7F8948091980388233D
:100FF00019F081508093980380919803811105C066
:101000008CB58F7B8CBD109297039FBF0895109273
:10101000060481E0809304041092030461E082E0FE
:101020000E940B1A61E083E00E940B1AE9EBF0E0EA
:1010300080818E7F808380818D7F808388E4809310
:10104000B80085E48093BC000895ECEBF0E080816B
:101050008A7B808360E082E00E940B1A60E083E07C
:101060000C940B1A880F8093BA0008959B01AC0171
:1010700060E074E284EF90E00E943E21DA01C90151
:101080004097A109B109B695A79597958795809343
:10109000B8000895413208F043C0909106049111C0
:1010A000FCCF91E090930604209304042FEF20934B
:1010B00099031092DE03240F2093DD03909305041F
:1010C00090910504880F892B809305048091030477
:1010D000813061F410920304809105048093BB0079
:1010E0008091BC0083FDF8CF85EC01C085EE809334
:1010F000BC00809106048130E1F38091DE03841707
:1011000010F44091DE03AFEDB3E0962FFB018E2F7C
:10111000891B841718F48D918193F9CF842F08953A
:1011200080E008950F93413208F04AC09091060480
:101130009111FCCF32E030930604009304043FEF9A
:10114000309399031092DE034093DD03562FAFEDE9
:10115000B3E0FB013E2F351B341718F431913D935A
:10116000F9CF1092050430910504880F832B8093EA
:10117000050480910304813061F41092030480918E
:1011800005048093BB008091BC0083FDF8CF85EC03
:1011900001C085EE8093BC00222321F080910604DB
:1011A0008230D1F3809199038F3F79F08091990338
:1011B000803241F080919903803331F094E005C092
:1011C00091E003C092E001C093E0892F0F91089550
:1011D0004091BB03262F30E0240F311D2132310511
:1011E000DCF4209106042430C9F4FC0180E090E096
:1011F000861758F43091BB032191DC01A354BC4FF6
:10120000A30FB11D2C930196F3CF8091BB03680F00
:101210006093BB0380E0089581E0089582E0089523
:10122000909300048093FF030895909302048093A9
:101230000104089585ED8093BC008091BC0084FD7D
:10124000FCCF10920604089585EC8093BC001092A8
:10125000060408951F920F920FB60F9211242F9338
:101260003F934F935F936F937F938F939F93AF932E
:10127000BF93EF93FF938091B900887F803609F484
:101280009EC078F5883209F45DC090F4803109F48D
:1012900056C038F4882309F4F5C0883009F44FC0EB
:1012A000F5C0883109F44EC0803209F45FC0EEC049
:1012B000803409F46AC058F4803309F457C0883385
:1012C00009F0E4C0809399030E942409DFC08035AF
:1012D00009F44FC0883509F45DC0883409F0D6C0E0
:1012E000D3C0883909F4C4C0A8F4883709F467C0AA
:1012F00038F4883609F463C0803709F460C0C6C08A
:10130000883809F4B5C0803909F45FC0803809F025
:10131000BDC05BC0803B09F483C038F4803A09F457
:1013200066C0883A09F47CC0B1C0803C09F4A4C00E
:10133000883C09F4A1C0883B09F487C0A7C080910C
:10134000050410C09091DE038091DD03981770F5BD
:10135000E091DE0381E08E0F8093DE03F0E0E15246
:10136000FC4F80818093BB0085EC83C08093990300
:101370008BC0E091DE0381E08E0F8093DE038091CD
:10138000BB00F0E0E152FC4F80839091DE0380913E
:10139000DD036BC0E091DE0381E08E0F8093DE03FE
:1013A0008091BB00F0E0E152FC4F80838091040407
:1013B00081116AC081E08093030484EA5EC083E007
:1013C0008093060410929A03CFCF80919A038032C3
:1013D00008F04EC0E0919A0381E08E0F80939A034B
:1013E0008091BB00F0E0E556FC4F8083BDCF0E94AA
:1013F000240980919A03803230F4E0919A03F0E05E
:10140000E556FC4F108260919A0370E0E091FF0373
:10141000F09100048BE993E0099510929A0336C08D
:1014200084E0809306041092BC031092BB03E09109
:101430000104F091020409958091BB03811105C05C
:1014400081E08093BB031092BD03E091BC0381E077
:101450008E0F8093BC03F0E0E354FC4F80818093B7
:10146000BB009091BC038091BB03981708F47CCF1C
:1014700085E88093BC000AC085EC8093BC00109284
:10148000060404C0109299030E941A09FF91EF917B
:10149000BF91AF919F918F917F916F915F914F918C
:1014A0003F912F910F900FBE0F901F90189580E0E5
:1014B00090E0089580913B0490E020913C04821BD1
:1014C0009109089590913C0480913B04981750F441
:1014D000E92FF0E0E35CFB4F208130E09F5F9093C9
:1014E0003C0402C02FEF3FEFC9010895E0913C0496
:1014F00080913B04E81730F4F0E0E35CFB4F80811F
:1015000090E008958FEF9FEF08950895CF93DF93B4
:10151000EC01E0911304F09114043097F1F09091F4
:101520003C0480913B049817C0F090E0292F30E0F4
:101530002617370754F4DE01A20FB31F4C91D901CF
:10154000A35CBB4F4C939F5FF1CF10923C04609320
:101550003B04CB01DF91CF910994DF91CF910895A6
:10156000E0911504F0911604309729F010921904B7
:101570001092180409940895CF92DF92EF92FF928F
:101580000F931F93CF93DF937C01CB018A012091AE
:101590001704222389F0EB016B01C40ED51ECC1574
:1015A000DD0569F06991D701ED91FC910190F08121
:1015B000E02DC7010995F3CF642F0E94E808C80108
:1015C000DF91CF911F910F91FF90EF90DF90CF901F
:1015D0000895CF93DF931F92CDB7DEB76983209133
:1015E00017042223D1F020911804203240F021E08A
:1015F00030E0FC013383228380E090E015C08091CD
:101600001904E82FF0E0E65EFB4F998190838F5F2D
:10161000809319048093180405C061E0CE010196FF
:101620000E94E80881E090E00F90DF91CF9108954B
:10163000FC011382128288EE93E0A0E0B0E0848384
:101640009583A683B7838BEE91E091838083089581
:1016500010923C0410923B0410921904109218044A
:101660000C940708CF93DF93EC01862F0E94320879
:1016700080EB9AE00E94150986E89AE00E94100922
:10168000CE01DF91CF910C94280B0C94320B0C946B
:101690002508CB01BA010C94360881E08093170429
:1016A00060933A04109219041092180408950C944F
:1016B0004D0B0F93062F21E0409118046AE174E06E
:1016C00080913A040E949208109219041092180412
:1016D000109217040F9108954F925F926F927F922C
:1016E000AF92BF92CF92EF92FF920F931F93CF933F
:1016F000DF935C01F62ED42F28013901EE2021F171
:101700000E944D0BCE2DC43008F0C3E0C150C0F094
:1017100028E0C29FC0011124A301920104C0569584
:101720004795379527958A95D2F7CA01B901D50112
:10173000ED91FC910190F081E02DC5010995E6CF76
:1017400060E0C5010E94590B4D2FD13208F040E2F4
:101750002C2D6DE374E08F2D0E944A0810923C04FA
:1017600080933B04DF91CF911F910F91FF90EF90F9
:10177000CF90BF90AF907F906F905F904F90089503
:10178000CF92EF920F931F93C22EE12C00E010E056
:1017900098010E946C0B1F910F91EF90CF900895CC
:1017A00021E00C94C00B21E00C94C00B0C94C00BF6
:1017B00061E00C94590B7093140460931304089522
:1017C0007093160460931504089587E094E00C94D8
:1017D000180BCF93DF931F92CDB7DEB76983DC017F
:1017E000ED91FC910280F381E02D41E050E0BE01DB
:1017F0006F5F7F4F09950F90DF91CF910895CF9341
:10180000DF93EC018C859D8597FF05C082E00E94E7
:101810006B139D878C878C859D85DF91CF91089573
:1018200083E00E94821390E0089583E00C940016F8
:10183000FC018485958597FD06C082E00E94161301
:1018400090E00196089582E00E94161390E00895BA
:10185000FC018485958597FD05C02FEF3FEF358707
:101860002487089582E00C946B13CF93DF93EC01EF
:101870008091D301882331F083E00E949C131816D5
:10188000190634F081E090E09B838A8380E090E049
:10189000DF91CF910895FC0190819E5F908342E497
:1018A00050E068EE70E080E80C944C14FC018181FB
:1018B0009081913A59F4813209F05CC047E050E0E0
:1018C0006CEC71E080E00E944C1452C0913209F03F
:1018D00051C0833269F482819381A0E0B0E08093AB
:1018E000C8019093C901A093CA01B093CB0140C035
:1018F000803239F467E070E08CEC91E00E94731460
:1019000005C08232A9F582818093D3018091AD0414
:10191000882319F0EEEFFAE002C0E0E0F8E08091F1
:10192000CC019091CD01A091CE01B091CF01803B2F
:101930009440A105B10501F58091D30180FD1CC043
:10194000EE3F2AE0F20731F0808191819093FF0A07
:101950008093FE0A87E797E7918380839BE088E185
:101960000FB6F894A895809360000FBE9093600026
:1019700081E0089580E008950FB6F894A8958091CD
:101980006000886180936000109260000FBEA8958F
:10199000EE3F8AE0F80739F08091FE0A9091FF0A45
:1019A00091838083E5CF1092FF0A1092FE0AE0CF68
:1019B0002FEF3FEFFC01358724870895EDE5F4E034
:1019C0001382128288EE93E0A0E0B0E084839583D6
:1019D000A683B7838DEF91E0918380838FEF9FEF94
:1019E00095878487089508950E9473180E94F30CC8
:1019F0008AEC94E00E948B160E943305C0E0D0E090
:101A00000E943B052097E1F30E940000F9CFCF929E
:101A1000DF92EF92FF920F931F93CF93DF936C01AE
:101A20007A018B01C0E0D0E0CE15DF0581F0D8014E
:101A30006D918D01D601ED91FC910190F081E02D29
:101A4000C6010995892B11F02196EECF7E01C701C1
:101A5000DF91CF911F910F91FF90EF90DF90CF908A
:101A600008956115710579F0FB0101900020E9F7F7
:101A70003197AF01461B570BDC01ED91FC910280C1
:101A8000F381E02D099480E090E00895DC01ED9170
:101A9000FC910190F081E02D09946BE072E00C94D0
:101AA000310D8F929F92AF92BF92EF92FF920F9360
:101AB0001F93CF93DF93CDB7DEB7A1970FB6F894FE
:101AC000DEBF0FBECDBF7C01FA01CB0119A22230CF
:101AD00008F42AE08E010F5D1F4F822E912CA12C5D
:101AE000B12CBF01A50194010E943E21F901CA0158
:101AF000015011096A3010F4605D01C0695CD801C1
:101B00006C93232B242B252B61F7B801C7010E946E
:101B1000310DA1960FB6F894DEBF0FBECDBFDF9199
:101B2000CF911F910F91FF90EF90BF90AF909F903A
:101B30008F9008952115310541F4DC01ED91FC9160
:101B40000190F081E02D642F09940C94510D9A01BD
:101B5000AB0160E070E00C949A0D0F931F93CF934C
:101B6000DF93EC010E949A0D8C01CE010E944D0D75
:101B7000800F911FDF91CF911F910F9108957F9258
:101B80008F929F92AF92BF92CF92DF92EF92FF928D
:101B90000F931F93CF93DF938C016A017B01722E09
:101BA0009A01AB01C701B6010E942521882319F0D3
:101BB0006EE072E027C046015701E894B7F82FEFB6
:101BC0003FEF4FE75FE7C501B4010E942521811176
:101BD0000DC02FEF3FEF4FE75FE7C501B4010E9453
:101BE0005B1F18161CF462E172E00CC02FEF3FEF90
:101BF0004FE75FE4C701B6010E94B320181694F4C2
:101C000066E172E0C801DF91CF911F910F91FF90C3
:101C1000EF90DF90CF90BF90AF909F908F907F908C
:101C20000C94310D2FEF3FEF4FE75FECC701B6018A
:101C30000E945B1F87FDE4CF20E030E0A901C701CF
:101C4000B6010E945B1F87FF0AC06DE2C8010E94B7
:101C5000460DEC01F7FAF094F7F8F09402C0C0E0FA
:101C6000D0E0B12C60E070E080E09FE37B1441F0B5
:101C700020E030E040E251E40E94601FB394F6CFD0
:101C8000A70196010E94EF1E6B017C010E94D21FEA
:101C90004B015C012AE0AB01BC01C8010E94510D5F
:101CA000C80FD91F7720B9F1C501B4010E940120E6
:101CB0009B01AC01C701B6010E94EE1E6B017C01C5
:101CC0006EE2C8010E94460DC80FD91F20E030E027
:101CD00040E251E4C701B6010E94B8204B015C010B
:101CE0000E94D21F6B017C014AE050E0C8010E94B3
:101CF000A70DC80FD91FB60180E090E00E94012017
:101D00009B01AC01C501B4010E94EE1E6B017C0178
:101D10007A947110DBCFCE01DF91CF911F910F919B
:101D2000FF90EF90DF90CF90BF90AF909F908F90FB
:101D30007F9008950C94BF0D0F931F93CF93DF9363
:101D4000EC010E940618688779878A879B87E8815B
:101D5000F9810284F385E02DCE01099597FF17C024
:101D60000E940618088519852A853B85DC01CB0170
:101D7000801B910BA20BB30B0C811D812E813F8127
:101D800080179107A207B30710F38FEF9FEFDF9142
:101D9000CF911F910F910895CF92DF92EF92FF9212
:101DA0000F931F93CF93DF936C017A018B01C0E0F7
:101DB000D0E0CE15DF0559F0C6010E949C0E97FDBC
:101DC00005C0F80181938F012196F3CF7E01C701F1
:101DD000DF91CF911F910F91FF90EF90DF90CF9007
:101DE00008954F925F926F927F928F929F92AF92DF
:101DF000BF92CF92DF92EF92FF920F931F93CF93F8
:101E0000DF9300D000D01F92CDB7DEB78B01290140
:101E10003A019091D401891721F09F3F09F0A8C29F
:101E200005C0EAE2F1E024912D83ACC08093D40197
:101E3000EAE2F1E094919D839F3F09F499C29130C9
:101E400009F44FC068F1933009F472C0943009F07E
:101E500099C01092C0001092C1009091C10098608A
:101E60009093C1009091C10091609093C100282F80
:101E700030E0F901E855FE4FE491F0E0EE0FFF1F6E
:101E8000EB52FE4F459154915093B0044093AF04F0
:101E9000F901E757FE4FE491E093AE0424E070C0EF
:101EA00014BC15BC94B5926094BD95B5916095BD78
:101EB000282F30E0F901E855FE4FE491F0E0EE0FF5
:101EC000FF1FEB52FE4F459154915093C504409330
:101ED000C404F901E757FE4FE491E093C3041D8267
:101EE00054C01092800010928100909181009860FF
:101EF0009093810090918100916090938100282FB0
:101F000030E0F901E855FE4FE491F0E0EE0FFF1FDD
:101F1000EB52FE4F459154915093BE044093BD0443
:101F2000F901E757FE4FE491E093BC0421E028C09B
:101F3000109290001092910090919100986090936F
:101F4000910090919100916090939100282F30E042
:101F5000F901E855FE4FE491F0E0EE0FFF1FEB5260
:101F6000FE4F459154915093B7044093B604F90144
:101F7000E757FE4FE491E093B50493E09D8382C060
:101F80002D8380C09D8197FDF3C161E00E94CF1930
:101F90008D818D7F09F079C04801A12CB12C60E0C2
:101FA00072E18AE790E0A50194010E9460212983F3
:101FB0003A834B835C8369017A0121E0C21AD1081C
:101FC000E108F1088FEFC816D104E104F10409F02B
:101FD00008F44DC060E472E48FE090E0A501940144
:101FE0000E94602169017A0191E0C91AD108E108D3
:101FF000F1082D81223001F58FEFC816D104E104DC
:10200000F10409F008F45FC160E970ED83E090E04D
:10201000A50194010E94602169017A0191E0C91A29
:10202000D108E108F1082FEFC216D104E104F10450
:1020300011F008F08EC0E2C08FEFC816D104E104A1
:10204000F104B9F0B0F068E478EE81E090E0A50129
:1020500094010E94602169017A0191E0C91AD108B6
:10206000E108F1082D81222309F434C168C181E01F
:1020700001C082E09D819111C1C095B5987F892BE7
:1020800085BDBCC061E00E94CF194801A12CB12CD4
:1020900060E072E18AE790E0A50194010E9460216E
:1020A00069017A0181E0C81AD108E108F108C11478
:1020B000D10491E0E906F10488F068E478EE81E06B
:1020C00090E0A50194010E94602169017A0181E0FC
:1020D000C81AD108E108F10883E001C081E09D81C0
:1020E000913081F490918100987F892B80938100B9
:1020F000411451046104710409F085C02FEF3FEFD2
:10210000A901ADC02D81233081F490919100987F79
:10211000892B80939100411451046104710409F0EA
:1021200072C02FEF3FEFA901ACC09D81943009F040
:1021300065C09091C100987F892B8093C1004114A4
:1021400051046104710409F05EC02FEF3FEFA90153
:10215000AAC068E478EE81E090E0A50194010E94B5
:10216000602169017A0181E0C81AD108E108F1080B
:102170009FEFC916D104E104F10409F008F4A3C0EB
:1021800064E274EF80E090E0A50194010E94602178
:1021900069017A0181E0C81AD108E108F1089FEFCE
:1021A000C916D104E104F10449F140F162E17AE792
:1021B00080E090E0A50194010E94602169017A010C
:1021C00081E0C81AD108E108F1088FEFC816D104E0
:1021D000E104F10499F090F089819A81AB81BC818E
:1021E0002AE0B595A795979587952A95D1F76C0123
:1021F0007D0121E0C21AD108E108F108411451041F
:102200006104710471F0D801AA0FBB1FA3019201F0
:102210000E94852128EE33E040E050E00E943E21FC
:1022200003C02FEF3FEFA9018D818130C1F08CF405
:1022300081119EC0C7BC2093C6043093C70440934D
:10224000C8045093C90480916E00826080936E0030
:102250008FC09D819330A9F0943029F189C0D0922C
:102260008900C09288002093BF043093C00440933B
:10227000C1045093C20480916F00826080936F000C
:1022800077C0D0929900C09298002093B804309300
:10229000B9044093BA045093BB04809171008260EA
:1022A0008093710065C0C092CF002093B104309339
:1022B000B2044093B3045093B404809172008064DC
:1022C0008093720055C0411451046104710409F0F7
:1022D0009ACF4EC08FEFC816D104E104F10469F122
:1022E00060F162E17AE780E090E0A50194010E944C
:1022F000602169017A0191E0C91AD108E108F10869
:102300002FEFC216D104E104F104A9F0A0F08981F5
:102310009A81AB81BC813AE0B595A7959795879551
:102320003A95D1F76C017D0121E0C21AD108E1088C
:10233000F10885E0A2CE84E0A0CE83E09ECE2FEF10
:10234000C216D104E104F10489F080F062E17AE779
:1023500080E090E0A50194010E94602169017A016A
:1023600091E0C91AD108E108F1082FCF84E082CEAC
:102370000F900F900F900F900F90DF91CF911F91C2
:102380000F91FF90EF90DF90CF90BF90AF909F9014
:102390008F907F906F905F904F900895813049F0BB
:1023A00028F0833061F0843081F0089510926E003F
:1023B000089580916F008D7F80936F0008958091C4
:1023C00071008D7F809371000895809172008F7BE2
:1023D000809372000895CF93C82F8091D401C813C1
:1023E00007C0EAE2F1E084919FEF9093D40101C02D
:1023F0008FEF0E94CE1160E08C2FCF910C940B1ABE
:102400001F920F920FB60F9211242F933F934F9369
:102410005F936F937F938F939F93AF93BF93EF934C
:10242000FF938091B8049091B904A091BA04B0913F
:10243000BB04892B8A2B8B2B51F19091B504E09131
:10244000B604F091B7048081892780838091B80415
:102450009091B904A091BA04B091BB041816190662
:102460001A061B060CF58091B8049091B904A0914E
:10247000BA04B091BB040197A109B1098093B804D3
:102480009093B904A093BA04B093BB040DC083E049
:102490000E94CE118091B504E091B604F091B7048A
:1024A0009081809589238083FF91EF91BF91AF91B7
:1024B0009F918F917F916F915F914F913F912F915C
:1024C0000F900FBE0F901F901895615030F0209123
:1024D000F100FC0120830196F8CF289884E68093D0
:1024E000D20408954091CD045091CE042091CB04A4
:1024F0003091CC0442175307B4F49091E8009570E2
:10250000E1F39091E80092FD19C08093F100809171
:10251000CD049091CE0401968F739927892B19F4DD
:102520008EEF8093E8008091CD049091CE040196C7
:102530009093CE048093CD0481E0089580E00895C7
:10254000DF92EF92FF920F931F93CF93DF93D82EDA
:10255000F92EE42E062F10E0C8010196880F0E9484
:10256000721283E00E947212CD2DDF2D0C0F1D1F01
:10257000C017D10789F0E7FE03C0FE01849101C0B6
:1025800088810E947212F82E80E00E9472128F21C0
:1025900021968111EDCF01C081E0DF91CF911F9194
:1025A0000F91FF90EF90DF9008958091D7008160A8
:1025B0008093D70080EA8093D80089B5806189BD77
:1025C00089B5826089BD09B400FEFDCF61E070E08D
:1025D00080E090E00E9437188091D8008F7C806165
:1025E0008093D8008091E000807F8093E000089580
:1025F000CF93DF931F92CDB7DEB71982CE0101963C
:102600000E944B0C0E94DA1EBE016F5F7F4F0E943A
:10261000551E89810F90DF91CF9108952FB7FC014E
:102620002083F89467706093E9000895CF93DF9357
:102630001F92CDB7DEB7682FCE0101960E940E1310
:102640008091F20099819FBF0F90DF91CF91089503
:10265000EF92FF920F931F93CF93DF931F92CDB70B
:10266000DEB79091D104992311F057FF03C08FEF8B
:102670009FEF29C08A017B01682FCE0101960E943D
:102680000E132091F20030E0021713070CF49801AA
:10269000822FF70194E6815038F028989093D20465
:1026A0004091F1004193F7CF2115310521F0809140
:1026B000F200882321F089818FBFC90104C08BE615
:1026C0008093E800F8CF0F90DF91CF911F910F9189
:1026D000FF90EF900895CF93DF931F92CDB7DEB7B1
:1026E00041E050E0BE016F5F7F4F0E9428130197C9
:1026F00019F4898190E002C08FEF9FEF0F90DF9176
:10270000CF910895CF93DF931F92CDB7DEB7682F97
:10271000CE0101960E940E139091E800892F8072DD
:1027200095FF04C09091F20080E4891B99819FBFBE
:102730000F90DF91CF9108955F926F927F928F9269
:102740009F92AF92BF92CF92DF92EF92FF920F9340
:102750001F93CF93DF931F92CDB7DEB7982E6B01F7
:10276000B42E052F8091D104811103C08FEF9FEF0C
:1027700077C08091CF0480FF05C08091E000826027
:102780008093E000EB2CF02EA12C8AEF882E892D6F
:102790008072682E892D8074582E9AE3792EE11468
:1027A000F10419F4AA2009F455C0892D0E9482135E
:1027B000182F81110AC08A948820C1F261E070E06C
:1027C00080E090E00E943718EACF90E0E816F90622
:1027D0000CF41E2D692DCE0101960E940E138091DE
:1027E000E80085FF34C0812F90E0E81AF90A6620DE
:1027F00029F01150A0F01092F100FBCFF60197FEE6
:102800000AC0115050F024912093F1003196F9CF75
:1028100021912093F1001150D8F7C80ED91EAA209B
:1028200019F07092E8000BC08091E80085FD09C0A6
:102830007092E800AA24A394E114F10441F0A12CC1
:1028400006C0E114F10419F451107092E800898176
:102850008FBFA5CF5D9884E68093D3048B2D902FF6
:102860000F90DF91CF911F910F91FF90EF90DF902C
:10287000CF90BF90AF909F908F907F906F905F9020
:1028800008951092E9001092CE041092CD04909316
:10289000CC048093CB040895DF92EF92FF920F93C4
:1028A0001F93CF93DF93D82E8A017B01E40EF51E90
:1028B000EB01CE15DF0571F0D7FE03C0FE01849158
:1028C00001C088810E94721221968111F2CF8FEF90
:1028D0009FEF01C0C801DF91CF911F910F91FF9031
:1028E000EF90DF900895AF92BF92DF92EF92FF9248
:1028F0000F931F93CF93DF935C018B01EB019BEF51
:10290000D92E2097C1F07E01C134D1051CF080E49E
:10291000E82EF12C8091E80082FFFCCFC8018C1BCF
:102920009D0B6E2D8A0D9B1D0E946512D092E800B2
:10293000CE19DF09E6CFC801DF91CF911F910F912A
:10294000FF90EF90DF90BF90AF9008951F920F928D
:102950000FB60F921124CF92DF92EF92FF920F9356
:102960001F932F933F934F935F936F937F938F9317
:102970009F93AF93BF93EF93FF93CF93DF93CDB725
:10298000DEB76C97DEBFCDBF1092E9008091E80002
:1029900083FF17C168E0CE0145960E94651282EF61
:1029A0008093E8008D8987FF05C09091E80090FF33
:1029B000FCCF03C09EEF9093E800982F907609F02B
:1029C000D8C09E894F89588D2F89188D91110CC0C0
:1029D000803829F48091D0048093F10002C01092D5
:1029E000F1001092F100E6C0913051F48111E2C083
:1029F0004130510509F0DEC08091D0048D7F0BC0BD
:102A0000933061F48111D6C04130510509F0D2C034
:102A10008091D00482608093D004CCC0953049F47A
:102A20008091E80080FFFCCF822F80688093E300D4
:102A3000C1C0963009F070C0EB8CFC8C123069F587
:102A400080E090E00E9441140E94F81299E09E01FB
:102A50002F5F3F4F6901F901292F11922A95E9F75C
:102A600099831A8391E09E8390EA98879AEF9987D9
:102A70002091CD043091CE04275F3F4F3C832B83C0
:102A80008D83C7010E94411449E050E0B60180E007
:102A90000E944C140E94F8128DC0C7010E9441147C
:102AA0000E94DA1EBE016B5E7F4F0E947E1E009761
:102AB00019F00CF07FC082C0113009F470C01330DF
:102AC00009F07CC08F89882309F46CC0823029F416
:102AD00040E860E189E491E006C0813039F440E8E3
:102AE0006BE08DE391E00E94A01256C0833009F0A4
:102AF00065C00E94DA1E8E010F5F1F4FB8010E9451
:102B00009D1EF80101900020E9F73197BF01601B7D
:102B1000710B40E0C801E7CF973009F44FC09830FF
:102B200021F481E08093F10045C0993009F042C062
:102B3000837009F043C0E6EDF1E081E031E096E317
:102B40002081211109C08EE78093EA001092EA00EB
:102B50008F898093D1042EC08093E9003093EB00DD
:102B600021912093EC009093ED008F5F873041F727
:102B7000EACF8B8D9C8D0E944114898D811105C0F7
:102B8000CE0145960E94560C07C00E94DA1EBE0177
:102B90006B5E7F4F0E94BC1E882381F00BC06BE2EE
:102BA00071E002C06AE571E0FB01449150E080E809
:102BB0000E944C148EEF8093E80003C081E2809362
:102BC000EB006C960FB6F894DEBF0FBECDBFDF9161
:102BD000CF91FF91EF91BF91AF919F918F917F9195
:102BE0006F915F914F913F912F911F910F91FF90A6
:102BF000EF90DF90CF900F900FBE0F901F90189521
:102C00008093E9008091F200882319F08AE3809391
:102C1000E80008951F920F920FB60F9211242F9380
:102C20003F934F935F936F937F938F939F93AF9354
:102C3000BF93CF93EF93FF93C091E1008091E100A8
:102C4000837F8093E100C3FF0FC01092E90081E011
:102C50008093EB001092EC0082E38093ED001092E1
:102C6000D10488E08093F000C2FF19C083E00E9485
:102C700000168091D304882339F08091D3048150C9
:102C80008093D304882389F18091D204882339F07A
:102C90008091D20481508093D204882341F1C4FFF3
:102CA00010C08091E2008E7E81608093E20080916E
:102CB000E1008F7E8093E1008091CF048E7E806161
:102CC00011C0C0FF16C08091E2008E7E80618093AB
:102CD000E2008091E1008E7E8093E1008091CF043C
:102CE0008E7E81608093CF0404C05D9ACDCF289AF8
:102CF000D6CFFF91EF91CF91BF91AF919F918F91DF
:102D00007F916F915F914F913F912F910F900FBEE7
:102D10000F901F9018951092D1041092D004109229
:102D2000CF040E94D5128091E1008E7E8093E10055
:102D30008DE08093E200559A209AEEEFFFE78591AF
:102D400094918B3F9C4D19F481E08093AD040895DC
:102D50000895853008F04CC0E82FF0E0EE0FFF1F1B
:102D6000E452FE4F718360838230E1F018F48130C9
:102D700069F004C0833019F1843071F180916900E9
:102D80008C7F482B40936900E89A089580916900F0
:102D9000837F440F551F440F551F482B40936900F4
:102DA000E99A0895809169008F7C34E0440F551FA3
:102DB0003A95E1F7482B40936900EA9A089580918B
:102DC00069008F7326E0440F551F2A95E1F7482BC1
:102DD00040936900EB9A089580916A008F7C94E09B
:102DE000440F551F9A95E1F7482B40936A00EE9ADD
:102DF00008951F920F920FB60F9211242F933F93B5
:102E00004F935F936F937F938F939F93AF93BF93F2
:102E1000EF93FF93E091DC01F091DD010995FF91C3
:102E2000EF91BF91AF919F918F917F916F915F9142
:102E30004F913F912F910F900FBE0F901F901895BB
:102E40001F920F920FB60F9211242F933F934F931F
:102E50005F936F937F938F939F93AF93BF93EF9302
:102E6000FF93E091DE01F091DF010995FF91EF9171
:102E7000BF91AF919F918F917F916F915F914F9192
:102E80003F912F910F900FBE0F901F9018951F929A
:102E90000F920FB60F9211242F933F934F935F938E
:102EA0006F937F938F939F93AF93BF93EF93FF9312
:102EB000E091E001F091E1010995FF91EF91BF915F
:102EC000AF919F918F917F916F915F914F913F91C2
:102ED0002F910F900FBE0F901F9018951F920F9279
:102EE0000FB60F9211242F933F934F935F936F93DD
:102EF0007F938F939F93AF93BF93EF93FF93E09153
:102F0000E201F091E3010995FF91EF91BF91AF913B
:102F10009F918F917F916F915F914F913F912F91F1
:102F20000F900FBE0F901F9018951F920F920FB623
:102F30000F9211242F933F934F935F936F937F933F
:102F40008F939F93AF93BF93EF93FF93E091E4012F
:102F5000F091E5010995FF91EF91BF91AF919F919C
:102F60008F917F916F915F914F913F912F910F9032
:102F70000FBE0F901F9018951F920F920FB60F92D1
:102F800011242F933F938F939F93AF93BF9380917F
:102F9000D5049091D604A091D704B091D804309173
:102FA000D40423E0230F2D3720F40196A11DB11D79
:102FB00005C026E8230F0296A11DB11D2093D4045D
:102FC0008093D5049093D604A093D704B093D804EB
:102FD0008091D9049091DA04A091DB04B091DC04D3
:102FE0000196A11DB11D8093D9049093DA04A0939A
:102FF000DB04B093DC04BF91AF919F918F913F911F
:103000002F910F900FBE0F901F9018952FB7F89427
:103010006091D5047091D6048091D7049091D80422
:103020002FBF08953FB7F8948091D9049091DA04A6
:10303000A091DB04B091DC0426B5A89B05C02F3F0E
:1030400019F00196A11DB11D3FBFBA2FA92F982FCE
:103050008827820F911DA11DB11DBC01CD0142E049
:10306000660F771F881F991F4A95D1F708958F9291
:103070009F92AF92BF92CF92DF92EF92FF926B013D
:103080007C010E9412184B015C01C114D104E104BF
:10309000F10401F10E94541E0E941218DC01CB01C0
:1030A00088199909AA09BB09883E9340A105B10571
:1030B00060F321E0C21AD108E108F10888EE880E19
:1030C00083E0981EA11CB11CC114D104E104F104D9
:1030D00019F7DBCFFF90EF90DF90CF90BF90AF90CC
:1030E0009F908F900895789484B5826084BD84B554
:1030F000816084BD85B5826085BD85B5816085BDF3
:10310000EEE6F0E0808181608083E1E8F0E010820B
:10311000808182608083808181608083E0E8F0E04C
:10312000808181608083E1E9F0E08081826080833A
:10313000808181608083E0E9F0E08081816080832C
:10314000E1ECF0E080818460808380818260808314
:10315000808181608083E3ECF0E080818160808306
:10316000E0ECF0E0808182608083E2ECF0E080813E
:1031700081608083EAE7F0E08081846080838081E1
:103180008260808380818160808380818068808389
:103190000895823108F08251E82FF0E0E25AFE4FA4
:1031A000E49180917B00E3FB222720F930E095E059
:1031B000220F331F9A95E1F78F7D282B20937B00F8
:1031C0008091E60120E4829FC0011124E770E82B82
:1031D000E0937C0080917A00806480937A008091F3
:1031E0007A0086FDFCCF809178002091790090E0F4
:1031F000922B08951F93CF93DF93182FEB0161E07B
:103200000E94CF19209711F460E004C0CF3FD10590
:1032100039F461E0812FDF91CF911F910C940B1A4B
:10322000E12FF0E0E659FE4FE4918E2F90E0FC0193
:103230003197EF30F10508F06CC0EA5AFF4F0C945B
:103240007F2184B5806884BDC7BD68C084B58062B5
:1032500084BDC8BD63C08091800080688093800079
:10326000D0938900C093880059C08091800080620B
:1032700080938000D0938B00C0938A004FC08091D0
:103280008000886080938000D0938D00C0938C0074
:1032900045C080919000806880939000D093990001
:1032A000C09398003BC08091900080628093900012
:1032B000D0939B00C0939A0031C0809190008860A9
:1032C00080939000D0939D00C0939C0027C0809174
:1032D000C00080688093C0008091C0008F7B809385
:1032E000C000C093CF001AC08091C000806280935C
:1032F000C000C093D00012C08091C200886080934B
:10330000C2008091C2008B7F8093C200C093D20024
:1033100005C0C038D1050CF07CCF76CFDF91CF91BE
:103320001F91089590E0FC013197EF30F105B0F561
:10333000EB59FF4F0C947F21809180008F7703C061
:10334000809180008F7D809380000895809180001F
:10335000877FF9CF84B58F7702C084B58F7D84BD18
:103360000895809190008F7707C0809190008F7DA5
:1033700003C080919000877F809390000895809192
:10338000C0008F7703C08091C0008F7D8093C00004
:1033900008958091C200877F8093C2000895CF93E3
:1033A000DF9390E0FC01E757FE4F2491FC01E855C4
:1033B000FE4F8491882361F190E0880F991FFC01F2
:1033C000ED51FE4FC591D491FC01EB52FE4FA591FA
:1033D000B491611109C09FB7F89488812095822328
:1033E0008883EC912E230BC0623061F49FB7F89470
:1033F0008881322F309583238883EC912E2B2C9358
:103400009FBF06C08FB7F894E8812E2B28838FBF0B
:10341000DF91CF9108951F93CF93DF93282F30E052
:10342000F901E659FE4F8491F901E757FE4FD49117
:10343000F901E855FE4FC491CC23C1F0162F81113C
:103440000E949219EC2FF0E0EE0FFF1FEB52FE4F9F
:10345000A591B4919FB7F894111104C08C91D095A7
:10346000D82302C0EC91DE2BDC939FBFDF91CF917C
:103470001F910895CF93DF93282F30E0F901E6598B
:10348000FE4F8491F901E757FE4FD491F901E855B9
:10349000FE4FC491CC2391F081110E949219EC2F20
:1034A000F0E0EE0FFF1FE953FE4FA591B491EC91B0
:1034B000ED2381E090E021F480E002C080E090E024
:1034C000DF91CF9108950F931F9390E0FC01E75790
:1034D000FE4F7491FC01E855FE4FE491662311F014
:1034E000672F01C060E0F0E0EE0FFF1FE953FE4FD1
:1034F0008591949189019A013F70462F672F0E9410
:103500002701611571058105910549F0DC01CB01A9
:103510000196A11DB11DBC01CD019F7003C060E0EB
:1035200070E0CB011F910F9108954F925F926F92BF
:103530007F928F929F92AF92BF92CF92DF92EF9243
:10354000FF920F931F93CF93DF9349015A0190E0AD
:10355000FC01E757FE4F1491FC01E855FE4FC49162
:10356000662311F0012F01C000E00E9412186B01C8
:103570007C01D0E0CC0FDD1FC953DE4FFE01A591C9
:10358000B4918C91812308131EC00E941218DC0193
:10359000CB018C199D09AE09BF0988169906AA06A8
:1035A000BB0660F760E070E0CB0133C00E941218E8
:1035B000DC01CB018C199D09AE09BF09881699065B
:1035C000AA06BB0678F3FE01A591B4918C918123E4
:1035D0000813ECCF0E9412182B013C01FE01A591AB
:1035E000B4918C91812308130EC00E941218DC0143
:1035F000CB018C199D09AE09BF0988169906AA0648
:10360000BB0660F7CFCF0E941218641975098609AE
:103610009709DF91CF911F910F91FF90EF90DF906D
:10362000CF90BF90AF909F908F907F906F905F9062
:103630004F900895CF92DF92EF92FF920F931F93D6
:10364000CF93DF93F82ED62FE42E07E010E0C0E0F2
:1036500087E0C82ED12C61E08D2F0E940B1A8F2D90
:10366000E1100AC00E943A1A9601201B310B01C0DA
:10367000880F2A95EAF707C00E943A1A002E01C067
:10368000880F0A94EAF7C82B60E08D2F0E940B1A6E
:103690000150110900F78C2FDF91CF911F910F91ED
:1036A000FF90EF90DF90CF900895BF92CF92DF927E
:1036B000EF92FF920F931F93CF93DF93C82ED62ED6
:1036C000B42EC7E0D0E0022F10E087E0E82EF12C06
:1036D000B11005C0C7018C1B9D0BB80102C0B80119
:1036E0008C2F02C0759567958A95E2F761708C2DD5
:1036F0000E940B1A61E08D2D0E940B1A60E08D2D47
:103700000E940B1A219720F7DF91CF911F910F9103
:10371000FF90EF90DF90CF90BF900895CF92DF920F
:10372000EF92FF92611571058105910549F06B01DA
:103730007C010E94FE21A70196010E94602103C026
:1037400060E070E0CB01FF90EF90DF90CF900895A4
:10375000CF92DF92EF92FF920F931F93621773073E
:103760008407950784F489019A016B017C01C901E2
:10377000B8016C197D098E099F090E948E1B6C0D82
:103780007D1D8E1D9F1D1F910F91FF90EF90DF906B
:10379000CF90089520911F053091200528173907F3
:1037A000B9F49091DD048091DE04981789F0E091DE
:1037B000DD04F0E0E152FB4F80812091DD0430E038
:1037C0002F5F3F4F2F7333272093DD0490E0089540
:1037D0008FEF9FEF08951F93CF93DF93DC015C96EB
:1037E0008D919C915D97009739F421E030E013961C
:1037F0003C932E9312973BC05196ED91FC915297BA
:1038000050962C915097322F30951FB75E964C9161
:103810005E97742F727041FD6095F8944081772314
:1038200011F0422B01C043234083EC012197F1F7B3
:1038300048E0508160FF02C0522B01C053235083E7
:10384000EC012197F1F76695415099F78081772334
:1038500019F08323808302C0282B20831FBF5C962E
:103860008D919C915D970197F1F781E090E0DF9158
:10387000CF911F910895089520911F053091200543
:103880002817390771F49091DD048091DE049817B0
:1038900041F0E091DD04F0E0E152FB4F808190E0E7
:1038A00008958FEF9FEF089520911F053091200517
:1038B0002817390771F48091DE042091DD0490E02F
:1038C000805C9F4F821B910960E470E00E942A2176
:1038D000089580E090E00895E0911F05F0912005A3
:1038E000E817F90769F4A389B4899C9185898095C3
:1038F00089238C931092200510921F0581E0089572
:1039000080E00895CF93DF93EC018A8D9B8D892B06
:10391000F1F080911F0590912005C817D907B9F0E3
:10392000009711F00E946C1C8E8D8E7F8E8F1092EE
:10393000DE041092DD04D0932005C0931F05EB89AF
:10394000FC8990818D89892B808381E001C080E092
:10395000DF91CF9108951F920F920FB60F9211240D
:103960002F933F934F935F936F937F938F939F9387
:10397000AF93BF93EF93FF93E0911F05F091200564
:10398000309709F451C0968DA685B785858591FF3E
:1039900004C09C91892329F447C09C91892309F094
:1039A00043C0A389B4899C918589809589238C9390
:1039B000868997890197F1F7608D718DA685B78506
:1039C000558538E020E0CB010197F1F7822F90E098
:1039D00095958795282F4C91452309F02068315003
:1039E00091F7868D81FD20958091DE0490E001960F
:1039F0008F7399273091DD04381749F0A091DE04C8
:103A0000B0E0A152BB4F2C938093DE0403C0868D9F
:103A10008160868F828D938D0197F1F7A389B48998
:103A20009C918589892B8C93FF91EF91BF91AF91E8
:103A30009F918F917F916F915F914F913F912F91C6
:103A40000F900FBE0F901F9018952EE132E0FC01F1
:103A5000318320830C946C1C1F93CF93DF93EC0174
:103A6000162F6E8D6695617081E06827812F0E9408
:103A70000B1A61E0812F0E94CF19812F90E0FC0189
:103A8000E757FE4FE491E88BFC01E855FE4FE491C7
:103A9000F0E0EE0FFF1FEB52FE4F859194919A8B51
:103AA000898BDF91CF911F9108951F93CF93DF935F
:103AB000EC01162F60E0812F0E94CF198E8D81FDC1
:103AC00004C061E0812F0E940B1A1C87812F90E0B7
:103AD000FC01E757FE4FE491ED87FC01E855FE4FEE
:103AE000E491F0E0EE0FFF1FE953FE4F85919491B2
:103AF0009F878E87DF91CF911F9108951F93CF935A
:103B0000DF93EC01162F1B821A8288EE93E0A0E06F
:103B1000B0E08C839D83AE83BF838EE192E0998376
:103B200088831F8A1E8A198E188E1B8E1A8E1D8EF0
:103B30001C8E8E8D8E7F20FB81F98E8F642FCE019F
:103B40000E942C1D612FCE01DF91CF911F910C940B
:103B5000551DCF93DF93EC019A01AB011B8E1A8E9A
:103B6000198E188E1F8A1E8A60E079E08DE390E03E
:103B70000E946021F9012430310518F0C901039732
:103B800002C081E090E09D8F8C8F8C8598EF980F1C
:103B9000943048F062EF680F643028F066EE680FEA
:103BA000633008F072C0B90176956795643171058C
:103BB00018F06351710902C061E070E07F8B6E8B79
:103BC000369720F0B9016550710902C061E070E0DC
:103BD000798F688FB901660F771F260F371F3695CB
:103BE0002795369527952D30310518F02C50310941
:103BF00002C021E030E03B8F2A8F943058F092EFE2
:103C0000980F943038F08A51833008F043C0A8E60A
:103C1000B0E042C0A8E6B0E0E8E6F0E08081816074
:103C20008C938C8598EF980F943040F022EF280FFA
:103C3000243020F026EE280F233018F42BE630E055
:103C400002C020E030E03C8B2B8B943010F49CEFD2
:103C500009C08E3071F08F3071F0803171F0813198
:103C600071F09AEE980F81E001C0880F9A95EAF7FB
:103C700007C088E005C082E003C084E001C081E0A5
:103C80008D8B8C8D9D8D0197F1F7CE01DF91CF91BA
:103C90000C94821CA0E0B0E0833008F4BDCFE0E0DB
:103CA000F0E0BCCF0C946C1C0895EF92FF920F9340
:103CB0001F93CF93DF937B01FC01C281D38100E08E
:103CC00010E0209781F0E881F9810280F381E02DF6
:103CD000B701CE01099597FD08C0080F191F088488
:103CE000D985C02DEECFC80102C08FEF9FEFDF91C5
:103CF000CF911F910F91FF90EF9008950F931F9315
:103D0000CF93DF938B01FC01C281D381209771F0A7
:103D1000E881F9810480F581E02DB801CE01099593
:103D2000009731F40884D985C02DF0CF80E090E071
:103D3000DF91CF911F910F9108950F931F93CF9310
:103D4000DF938B01FC01C281D381209771F0E88160
:103D5000F9810680F781E02DB801CE010995080FA1
:103D6000111D0884D985C02DF0CFF8011082DF9194
:103D7000CF911F910F9108950F931F93CF93DF93CE
:103D80008B01FC01C281D381209771F0E881F98118
:103D90000190F081E02DB801CE010995811105C097
:103DA0000884D985C02DF0CF80E0DF91CF911F919D
:103DB0000F9108958091250581110DC082E08093B7
:103DC000210584E08093220510922405109223059A
:103DD00081E08093250581E295E008955058BB2746
:103DE000AA270E94061F0C9479200E946B2038F0AD
:103DF0000E94722020F039F49F3F19F426F40C94AD
:103E000068200EF4E095E7FB0C946220E92F0E94F5
:103E10008A2058F3BA17620773078407950720F0C2
:103E200079F4A6F50C94AC200EF4E0950B2EBA2F85
:103E3000A02D0B01B90190010C01CA01A0011124B0
:103E4000FF27591B99F0593F50F4503E68F11A165C
:103E5000F040A22F232F342F4427585FF3CF4695ED
:103E600037952795A795F0405395C9F77EF41F160F
:103E7000BA0B620B730B840BBAF09150A1F0FF0FD9
:103E8000BB1F661F771F881FC2F70EC0BA0F621FC5
:103E9000731F841F48F4879577956795B795F795B5
:103EA0009E3F08F0B0CF9395880F08F09927EE0F4A
:103EB0009795879508950E943E2008F481E0089523
:103EC0000E94741F0C9479200E94722058F00E9466
:103ED0006B2040F029F45F3F29F00C9462205111CF
:103EE0000C94AD200C9468200E948A2068F39923DA
:103EF000B1F3552391F3951B550BBB27AA276217E6
:103F00007307840738F09F5F5F4F220F331F441FF2
:103F1000AA1FA9F335D00E2E3AF0E0E832D0915026
:103F20005040E695001CCAF72BD0FE2F29D0660F13
:103F3000771F881FBB1F261737074807AB07B0E856
:103F400009F0BB0B802DBF01FF2793585F4F3AF05C
:103F50009E3F510578F00C9462200C94AD205F3F99
:103F6000E4F3983ED4F3869577956795B795F795E2
:103F70009F5FC9F7880F911D9695879597F90895CA
:103F8000E1E0660F771F881FBB1F62177307840766
:103F9000BA0720F0621B730B840BBA0BEE1F88F775
:103FA000E09508950E94922088F09F5798F0B92FCD
:103FB0009927B751B0F0E1F0660F771F881F991F5E
:103FC0001AF0BA95C9F714C0B13091F00E94AC2034
:103FD000B1E008950C94AC20672F782F8827B85F44
:103FE00039F0B93FCCF3869577956795B395D9F7B6
:103FF0003EF490958095709561957F4F8F4F9F4FC0
:104000000895E89409C097FB3EF4909580957095CB
:1040100061957F4F8F4F9F4F9923A9F0F92F96E914
:10402000BB279395F695879577956795B795F11189
:10403000F8CFFAF4BB0F11F460FF1BC06F5F7F4F26
:104040008F4F9F4F16C0882311F096E911C0772338
:1040500021F09EE8872F762F05C0662371F096E841
:10406000862F70E060E02AF09A95660F771F881F10
:10407000DAF7880F9695879597F90895990F0008B4
:10408000550FAA0BE0E8FEEF16161706E807F9072A
:10409000C0F012161306E407F50798F0621B730BC5
:1040A000840B950B39F40A2661F0232B242B252B46
:1040B00021F408950A2609F4A140A6958FEF811DE9
:1040C000811D089597F99F6780E870E060E008958A
:1040D0009FEF80EC089500240A9416161706180620
:1040E0000906089500240A941216130614060506FC
:1040F0000895092E0394000C11F4882352F0BB0F8D
:1041000040F4BF2B11F460FF04C06F5F7F4F8F4FEF
:104110009F4F089557FD9058440F551F59F05F3F2A
:1041200071F04795880F97FB991F61F09F3F79F0D9
:1041300087950895121613061406551FF2CF46955B
:10414000F1DF08C0161617061806991FF1CF8695DD
:104150007105610508940895E894BB2766277727C1
:10416000CB0197F908950E943E2008F48FEF08953F
:104170000E94CB200C9479200E946B2038F00E9482
:10418000722020F0952311F00C9462200C9468208A
:1041900011240C94AD200E948A2070F3959FC1F3E6
:1041A000950F50E0551F629FF001729FBB27F00DE5
:1041B000B11D639FAA27F00DB11DAA1F649F66273A
:1041C000B00DA11D661F829F2227B00DA11D621F89
:1041D000739FB00DA11D621F839FA00D611D221F43
:1041E000749F3327A00D611D231F849F600D211D27
:1041F000822F762F6A2F11249F5750409AF0F1F0AA
:1042000088234AF0EE0FFF1FBB1F661F771F881F12
:1042100091505040A9F79E3F510580F00C946220C8
:104220000C94AD205F3FE4F3983ED4F386957795E8
:104230006795B795F795E7959F5FC1F7FE2B880FB8
:10424000911D9695879597F908950E943E20880BB9
:10425000990B089597FB072E16F4009407D077FD6D
:1042600009D00E94902107FC05D03EF490958195DD
:104270009F4F0895709561957F4F0895A1E21A2E82
:10428000AA1BBB1BFD010DC0AA1FBB1FEE1FFF1FFA
:10429000A217B307E407F50720F0A21BB30BE40B4A
:1042A000F50B661F771F881F991F1A9469F7609591
:1042B0007095809590959B01AC01BD01CF0108954B
:1042C000052E97FB1EF400940E94772157FD07D01E
:1042D0000E943E2107FC03D04EF40C9477215095A8
:1042E0004095309521953F4F4F4F5F4F08959095E2
:1042F0008095709561957F4F8F4F9F4F0895EE0F7A
:10430000FF1F0590F491E02D09940E94A421A59F20
:10431000900DB49F900DA49F800D911D11240895C0
:10432000AA1BBB1B51E107C0AA1FBB1FA617B707DB
:1043300010F0A61BB70B881F991F5A95A9F78095F7
:104340009095BC01CD010895A29FB001B39FC0011B
:10435000A39F700D811D1124911DB29F700D811DB1
:104360001124911D08958F929F92AF92BF92CF9288
:10437000DF92EF92FF92CF93DF93EC016881798116
:104380008A819B81611571058105910521F464E2A3
:1043900079ED8BE597E02DE133EF41E050E00E94AD
:1043A000602149015A019B01AC01A7EAB1E40E94D6
:1043B00085216B017C01ACEEB4EFA50194010E9454
:1043C0006E22DC01CB018C0D9D1DAE1DBF1DB7FF04
:1043D00003C00197A109B04888839983AA83BB834E
:1043E000BC01CD019F77DF91CF91FF90EF90DF90DF
:1043F000CF90BF90AF909F908F9008958F929F9293
:10440000AF92BF92CF92DF92EF92FF926091000144
:104410007091010180910201909103016115710574
:104420008105910521F464E279ED8BE597E02DE1BA
:1044300033EF41E050E00E94602149015A019B01A5
:10444000AC01A7EAB1E40E9485216B017C01ACEECE
:10445000B4EFA50194010E946E22DC01CB018C0D0A
:104460009D1DAE1DBF1DB7FF03C00197A109B04838
:104470008093000190930101A0930201B093030186
:10448000BC01CD019F77FF90EF90DF90CF90BF9060
:10449000AF909F908F9008956093000170930101F9
:1044A00080930201909303010895F999FECF92BD84
:1044B00081BDF89A992780B50895262FF999FECFE6
:1044C0001FBA92BD81BD20BD0FB6F894FA9AF99A31
:1044D0000FBE01960895B7FF0C9485210E94852197
:1044E000821B930B089510E0CCEFD0E004C0FE01D6
:1044F0000E947F212196CD3FD107C9F7F894FFCFC5
:104500000100000099039F03A703AD03B503BC039B
:10451000D203EA03F003F7030000000000000000EC
:104520001406260638064A060000000000000000B7
:104530000000000000000000000000006C018F017E
:10454000A901D001700178018201E1010204330464
:104550000904430400000000CC04B4046C047D048E
:10456000DA04DE042B058104BE04E604000000002A
:1045700000000000F50553050206A005BF05D005A3
:10458000D205DD05E4050000000000000000000089
:10459000A4066B0675068106C406D90626076E07B3
:1045A0004A07580766076A07980600001D031903A3
:1045B00015035103950300000000000000000000F7
:1045C0000000000000000000FFFFFFFF00E100000E
:1045D00000000000FF00C18081000000A816A8169E
:1045E000A816A816A8160100000000E90ABC0A5780
:1045F0000A850A5A0A620A760A00000000E90B35A9
:104600000C100C150C180C280CFF0B0D0A006E6119
:104610006E00696E66006F76660000000000EB1B9E
:0C462000070D570A3B1C541CCA1B3C1C15
:00000001FF
