S00D0000426C696E6B2E7372656327
S11300000C94FD000C9425010C9425010C942501FD
S11300100C9425010C9425010C9425010C942501C4
S11300200C9425010C9425010C948B0F0C94270E31
S11300300C9425010C9425010C9425010C942501A4
S11300400C9425010C9425010C9425010C94250194
S11300500C9425010C9425010C9425010C94291071
S11300600C9425010C9450070C9482070C942501E0
S11300700C9425010C9425010C9425010C94250164
S11300800C94810B0C9425010C9425010C942501EE
S11300900C9424030C9425010C9425010C94250143
S11300A00C9425010C9425010C9425018E119311B7
S11300B09811A211AC11F611F611F611B611C01176
S11300C0CA11D411E111F611E91117121A12091209
S11300D00D1213123B123B123B121E122212261255
S11300E02C1230123B123612080B000202020100DD
S11300F00904000001020200000524001001052487
S113010001010104240206052406000107058103F8
S113011010004009040100020A0000000705020261
S1130120400000070583024000000312010002EFB3
S1130130020140412336800001010203014172643F
S113014075696E6F204C4C430041726475696E6F23
S1130150204C656F6E6172646F0004030904070626
S113016005040100080A0B0C0D0900000002000937
S11301700F0000030401000C000000000000000058
S1130180000000000000000000040802011040808C
S1130190401020408040800802040180402010026A
S11301A001108010204040200404040404030405CA
S11301B00202020204030202020206060606060600
S11301C004040202020404000000002300260029A3
S11301D0002C002F0000000000250028002B002E1A
S11301E000310000000000240027002A002D003008
S11301F00000EC04F0040106B20711241FBECFEF87
S1130200DAE0DEBFCDBF11E0A0E0B1E0ECEBFBE251
S113021002C005900D92A03BB107D9F724E0A0EBF2
S1130220B1E001C01D92A733B207E1F710E0CDEFB2
S1130230D0E004C02197FE010E941215C93FD107E6
S1130240C9F70E94E0070C94DC150C940000CF92CF
S1130250DF92EF92FF920F931F93E82FF92F05C0BF
S1130260015011092109310961F1908196239417F4
S1130270B9F305C0015011092109310911F1908127
S113028096239413F7CFC12CD12CE12CF12C0AC066
S11302908FEFC81AD80AE80AF80A0C151D052E05AE
S11302A03F0579F080818623841791F36C2D7D2D91
S11302B08E2D9F2D1F910F91FF90EF90DF90CF9087
S11302C0089560E070E080E090E01F910F91FF904E
S11302D0EF90DF90CF9008958091BB010C946C0B4C
S11302E0E9EBF1E023814781668182810C94C2139A
S11302F0E9EBF1E0638170E020E030E0A901828164
S11303000C9472082091BD013091BE014091BF014F
S11303105091C001211531054105510521F420E416
S113032032E44FE050E06091BC018091BB010E9437
S1130330D0126093C5017093C6018093C701909356
S1130340C80148E050E061EC71E08EE093E00C9469
S113035058052091BD013091BE014091BF015091DB
S1130360C001211531054105510521F420E432E491
S11303704FE050E06091BC018091BB010E940213E8
S11303806093C5017093C6018093C7019093C8011F
S113039048E050E061EC71E08EE093E00C94580585
S11303A0E9EBF1E04781668182810E9487138093A3
S11303B0C50148E050E061EC71E08EE093E00C94FC
S11303C05805CF92DF92EF92FF920F931F93CF9332
S11303D0DF938EE093E00E943B056C01181619062A
S11303E00CF045C048E050E069EB71E08EE093E02A
S11303F00E944D08C091B901D0E094E0D595C7950D
S11304009A95E1F7C230D10594F18EE093E00E9411
S11304103B0518161906CCF7C80ED91E48E050E063
S113042061EB71E08EE093E00E944D08C630D10587
S1130430F4F08EE093E00E943B0518161906CCF701
S1130440C80ED91E89ECE82E81E0F82E01E010E0F8
S113045048E050E0B7018EE093E00E944D080F5F42
S11304601F4F88E0E80EF11CC017D10789F78C2DC7
S1130470DF91CF911F910F91FF90EF90DF90CF907C
S11304800895E9EBF1E0638182810C943C12E9EB7D
S1130490F1E0638182810C9478128091BB010E9407
S11304A0A7128093C50148E050E061EC71E08EE052
S11304B093E00C9458058091BB010E9436118093FF
S11304C0C50148E050E061EC71E08EE093E00C94EB
S11304D05805E9EBF1E0678170E082810E946711C1
S11304E048E050E061EC71E08EE093E00C94580534
S11304F0CF93DF93C1EBD1E0288139814A815B81BD
S11305006C817D818E819F810E941514688379831B
S11305108A839B8348E050E0BE018EE093E0DF9144
S1130520CF910C945805CF93DF9384E08093B0016E
S113053026E040E052EC61E070E08FE593E00E9439
S1130540EB0640E052EC61E070E08EE093E00E9444
S1130550FB05CFE6D0E024E630E040E050E068EC74
S113056070E080E090E00E9415146093490270935B
S11305704A0280934B0290934C0224E630E040E020
S113058050E068EC70E080E090E00E941514609305
S1130590490270934A0280934B0290934C02219734
S11305A0D1F6DF91CF9108950E94E101882399F05B
S11305B0E091B901EF708091BA019CE0E99FF001EC
S11305C01124E80FF11DEE0FFF1FEC5FFE4F0190A9
S11305D0F081E02D0994089540916F02262F30E0B8
S11305E0240F311D21323105DCF42091BA0224306C
S11305F0C9F4FC0180E090E0861758F430916F0252
S11306002191DC01AF58BD4FA30FB11D2C9301966E
S1130610F3CF80916F02680F60936F0280E00895BA
S113062081E0089582E0089585ED8093BC00809177
S1130630BC0084FDFCCF1092BA02089585EC80932F
S1130640BC001092BA0208951F920F920FB60F9237
S113065011242F933F934F935F936F937F938F93C3
S11306609F93AF93BF93EF93FF938091B900887FDB
S1130670803609F49EC078F5883209F45DC090F4A0
S1130680803109F456C038F4882309F4F5C0883061
S113069009F44FC0F5C0883109F44EC0803209F422
S11306A05FC0EEC0803409F46AC058F4803309F4A2
S11306B057C0883309F0E4C080934D020E941E03A2
S11306C0DFC0803509F44FC0883509F45DC0883433
S11306D009F0D6C0D3C0883909F4C4C0A8F4883757
S11306E009F467C038F4883609F463C0803709F424
S11306F060C0C6C0883809F4B5C0803909F45FC049
S1130700803809F0BDC05BC0803B09F483C038F475
S1130710803A09F466C0883A09F47CC0B1C0803CD0
S113072009F4A4C0883C09F4A1C0883B09F487C03B
S1130730A7C08091B90210C0909192028091910259
S1130740981770F5E091920281E08E0F80939202E7
S1130750F0E0ED56FD4F80818093BB0085EC83C0B3
S113076080934D028BC0E091920281E08E0F8093C2
S113077092028091BB00F0E0ED56FD4F8083909192
S11307809202809191026BC0E091920281E08E0FFF
S1130790809392028091BB00F0E0ED56FD4F808380
S11307A08091B80281116AC081E08093B70284EA23
S11307B05EC083E08093BA0210924E02CFCF809144
S11307C04E02803208F04EC0E0914E0281E08E0F5E
S11307D080934E028091BB00F0E0E15BFD4F80838B
S11307E0BDCF0E941E0380914E02803230F4E0910E
S11307F04E02F0E0E15BFD4F108260914E0270E02A
S1130800E091B302F091B4028FE492E00995109262
S11308104E0236C084E08093BA02109270021092A5
S11308206F02E091B502F091B602099580916F02D2
S1130830811105C081E080936F0210927102E091F2
S1130840700281E08E0F80937002F0E0EF58FD4F4C
S113085080818093BB009091700280916F02981701
S113086008F47CCF85E88093BC000AC085EC8093B3
S1130870BC001092BA0204C010924D020E941403EC
S1130880FF91EF91BF91AF919F918F917F916F9164
S11308905F914F913F912F910F900FBE0F901F903A
S11308A0189580E090E008958091EA0290E020910C
S11308B0EB02821B910908959091EB028091EA0268
S11308C0981750F4E92FF0E0E451FD4F208130E017
S11308D09F5F9093EB0202C02FEF3FEFC901089591
S11308E0E091EB028091EA02E81730F4F0E0E45181
S11308F0FD4F808190E008958FEF9FEF0895089554
S1130900CF92DF92EF92FF920F931F93CF93DF93D7
S11309107C01CB018A012091C702222389F0EB01DB
S11309206B01C40ED51ECC15DD0569F06991D701A4
S1130930ED91FC910190F081E02DC7010995F3CF71
S1130940642F0E94EC02C801DF91CF911F910F9197
S1130950FF90EF90DF90CF900895CF93DF931F9295
S1130960CDB7DEB769832091C7022223D1F020914D
S1130970C802203240F021E030E0FC0133832283BE
S113098080E090E015C08091C902E82FF0E0E653C2
S1130990FD4F998190838F5F8093C9028093C80231
S11309A005C061E0CE0101960E94EC0281E090E076
S11309B00F90DF91CF910895FC011382128288EE8B
S11309C093E0A0E0B0E084839583A683B7838DE7AA
S11309D091E09183808308958BEB92E00C94DC0486
S11309E0ECE0F3E080E58083118208956091BD011D
S11309F07091BE018091BF019091C0010E94A4102A
S1130A0048E050E061EC71E08EE093E00C9458050E
S1130A100C94F6040C94F604CF93DF931F92CDB795
S1130A20DEB76983DC01ED91FC910280F381E02D56
S1130A3041E050E0BE016F5F7F4F09950F90DF9159
S1130A40CF910895CF93DF93EC018C859D8597FF1B
S1130A5005C082E00E94EC0C9D878C878C859D8567
S1130A60DF91CF91089583E00E94030D90E00895F3
S1130A7083E00C94810FFC018485958597FD06C065
S1130A8082E00E94970C90E00196089582E00E9413
S1130A90970C90E00895FC018485958597FD05C029
S1130AA02FEF3FEF35872487089582E00C94EC0CF8
S1130AB0CF93DF93EC0180916F01882331F083E0C1
S1130AC00E941D0D1816190634F081E090E09B83F6
S1130AD08A8380E090E0DF91CF910895FC019081BA
S1130AE09E5F908342E450E068EE70E080E80C94EE
S1130AF0CD0DFC0181819081913A59F4813209F044
S1130B005CC047E050E068E671E080E00E94CD0DF3
S1130B1052C0913209F051C0833269F482819381C9
S1130B20A0E0B0E08093640190936501A093660116
S1130B30B093670140C0803239F467E070E088E622
S1130B4091E00E94F40D05C08232A9F58281809360
S1130B506F0180915E03882319F0EEEFFAE002C082
S1130B60E0E0F8E08091680190916901A0916A0148
S1130B70B0916B01803B9440A105B10501F58091D2
S1130B806F0180FD1CC0EE3F2AE0F20731F0808146
S1130B9091819093FF0A8093FE0A87E797E79183F8
S1130BA080839BE088E10FB6F894A8958093600059
S1130BB00FBE9093600081E0089580E008950FB621
S1130BC0F894A895809160008861809360001092E9
S1130BD060000FBEA895EE3F8AE0F80739F08091D7
S1130BE0FE0A9091FF0A91838083E5CF1092FF0A59
S1130BF01092FE0AE0CF2FEF3FEFFC0135872487E8
S1130C000895EEE0F3E01382128288EE93E0A0E010
S1130C10B0E084839583A683B7838FE891E09183C2
S1130C2080838FEF9FEF958784870895FC01918DD2
S1130C30228D892F90E0805C9F4F821B91098F73D6
S1130C4099270895FC01918D828D981731F0828D3A
S1130C50E80FF11D858D90E008958FEF9FEF0895C3
S1130C60FC01918D828D981761F0828DDF01A80FB0
S1130C70B11D5D968C91928D9F5F9F73928F90E0D2
S1130C8008958FEF9FEF0895FC01538D448D252F18
S1130C9030E0842F90E0821B930B541710F0CF9612
S1130CA008950197089588EA97E0892B49F080E038
S1130CB090E0892B29F00E94A80781110C94000070
S1130CC00895FC01848DDF01A80FB11DA35ABF4F05
S1130CD02C91848D90E001968F739927848FA68937
S1130CE0B7892C93A089B1898C9180648C93938D5E
S1130CF0848D981306C00288F389E02D80818F7D4E
S1130D0080830895EF92FF920F931F93CF93DF9305
S1130D10EC0181E0888F9B8D8C8D981305C0E88948
S1130D20F989808185FD24C0F62E0B8D10E00F5FBC
S1130D301F4F0F731127E02E8C8DE8120CC00FB6D5
S1130D4007FCFACFE889F989808185FFF5CFCE01C8
S1130D500E946106F1CF8B8DFE01E80FF11DE35A6D
S1130D60FF4FF0820B8FEA89FB898081806207C084
S1130D70EE89FF896083E889F989808180648083B2
S1130D8081E090E0DF91CF911F910F91FF90EF9060
S1130D900895CF93DF93EC01888D8823C9F0EA8905
S1130DA0FB89808185FD05C0A889B9898C9186FD60
S1130DB00FC00FB607FCF5CF808185FFF2CFA8895D
S1130DC0B9898C9185FFEDCFCE010E946106E7CFF2
S1130DD0DF91CF910895CF92DF92EF92FF921F930C
S1130DE0CF93DF93EC016A017B01122FE889F98923
S1130DF082E080834115514E61057105B1F060E0D8
S1130E0079E08DE390E0A70196010E94D114DA0104
S1130E10C9010197A109B109B695A7959795879539
S1130E209C01211580E13807A8F0E889F98910822E
S1130E3060E874E88EE190E0A70196010E94D11465
S1130E40DA01C9010197A109B109B695A79597954A
S1130E5087959C01EC85FD853083EE85FF85208395
S1130E60188EEC89FD891083EA89FB898081806171
S1130E708083EA89FB89808188608083EA89FB8991
S1130E80808180688083EA89FB8980818F7D80836B
S1130E90DF91CF911F91FF90EF90DF90CF90089555
S1130EA01F920F920FB60F9211242F938F939F933B
S1130EB0EF93FF93E0916F03F09170038081E091D1
S1130EC07503F091760382FD12C0908180917803BE
S1130ED08F5F8F7320917903821751F0E09178032B
S1130EE0F0E0E15AFC4F958F8093780301C0808134
S1130EF0FF91EF919F918F912F910F900FBE0F90C3
S1130F001F9018951F920F920FB60F9211242F93D2
S1130F103F934F935F936F937F938F939F93AF937D
S1130F20BF93EF93FF938FE593E00E946106FF91D7
S1130F30EF91BF91AF919F918F917F916F915F914D
S1130F404F913F912F910F900FBE0F901F901895C6
S1130F508FE593E00E94160621E0892B09F420E036
S1130F60822F0895EFE5F3E01382128288EE93E076
S1130F70A0E0B0E084839583A683B78381EA91E0FF
S1130F80918380838DEC90E0958784878CEC90E04E
S1130F909787868788EC90E0918B808B89EC90E032
S1130FA0938B828B8AEC90E0958B848B8EEC90E013
S1130FB0978B868B118E128E138E148E089508953E
S1130FC00E94E0100E94DF0788E194E00E940C1068
S1130FD00E949302C3E5D6E00E94D4022097E1F375
S1130FE00E945306F9CFCF92DF92EF92FF920F93B4
S1130FF01F93CF93DF936C017A018B01C0E0D0E0A3
S1131000CE15DF0581F0D8016D918D01D601ED91EA
S1131010FC910190F081E02DC6010995892B11F016
S11310202196EECF7E01C701DF91CF911F910F91E1
S1131030FF90EF90DF90CF9008950F931F93CF937D
S1131040DF93EC010E947310688779878A879B87F6
S1131050E881F9810284F385E02DCE01099597FF9B
S113106017C00E947310088519852A853B85DC0109
S1131070CB01801B910BA20BB30B0C811D812E8124
S11310803F8180179107A207B30710F38FEF9FEFFB
S1131090DF91CF911F910F910895CF92DF92EF923C
S11310A0FF920F931F93CF93DF936C017A018B010F
S11310B0C0E0D0E0CE15DF0559F0C6010E941D083E
S11310C097FD05C0F80181938F012196F3CF7E012E
S11310D0C701DF91CF911F910F91FF90EF90DF90A7
S11310E0CF9008954F925F926F927F928F929F92CA
S11310F0AF92BF92CF92DF92EF92FF920F931F9322
S1131100CF93DF9300D000D01F92CDB7DEB78B0111
S113111029013A0190917001891721F09F3F09F04C
S1131120A8C205C0EAE2F1E024912D83ACC080930B
S11311307001EAE2F1E094919D839F3F09F499C222
S1131140913009F44FC068F1933009F472C09430BF
S113115009F099C01092C0001092C1009091C10092
S113116098609093C1009091C10091609093C100E8
S1131170282F30E0F901E855FE4FE491F0E0EE0F3E
S1131180FF1FEB52FE4F459154915093FE03409341
S1131190FD03F901E757FE4FE491E093FC0324E0DB
S11311A070C014BC15BC94B5926094BD95B59160A3
S11311B095BD282F30E0F901E855FE4FE491F0E0A9
S11311C0EE0FFF1FEB52FE4F4591549150931304C1
S11311D040931204F901E757FE4FE491E0931104A0
S11311E01D8254C010928000109281009091810061
S11311F09860909381009091810091609093810018
S1131200282F30E0F901E855FE4FE491F0E0EE0FAD
S1131210FF1FEB52FE4F4591549150930C044093A1
S11312200B04F901E757FE4FE491E0930A0421E02F
S113123028C01092900010929100909191009860B3
S11312409093910090919100916090939100282F38
S113125030E0F901E855FE4FE491F0E0EE0FFF1F96
S1131260EB52FE4F4591549150930504409304046E
S1131270F901E757FE4FE491E093030493E09D8363
S113128082C02D8380C09D8197FDF3C161E00E94DF
S11312903C128D818D7F09F079C04801A12CB12CBD
S11312A060E072E18AE790E0A50194010E94F314E2
S11312B029833A834B835C8369017A0121E0C21A52
S11312C0D108E108F1088FEFC816D104E104F10454
S11312D009F008F44DC060E472E48FE090E0A501E9
S11312E094010E94F31469017A0191E0C91AD108AA
S11312F0E108F1082D81223001F58FEFC816D104E1
S1131300E104F10409F008F45FC160E970ED83E0E1
S113131090E0A50194010E94F31469017A0191E01F
S1131320C91AD108E108F1082FEFC216D104E1046B
S1131330F10411F008F08EC0E2C08FEFC816D1049A
S1131340E104F104B9F0B0F068E478EE81E090E0F3
S1131350A50194010E94F31469017A0191E0C91A6C
S1131360D108E108F1082D81222309F434C168C1B0
S113137081E001C082E09D819111C1C095B5987F43
S1131380892B85BDBCC061E00E943C124801A12CA0
S1131390B12C60E072E18AE790E0A50194010E941B
S11313A0F31469017A0181E0C81AD108E108F1084F
S11313B0C114D10491E0E906F10488F068E478EE00
S11313C081E090E0A50194010E94F31469017A017F
S11313D081E0C81AD108E108F10883E001C081E086
S11313E09D81913081F490918100987F892B809325
S11313F08100411451046104710409F085C02FEF88
S11314003FEFA901ADC02D81233081F4909191006B
S1131410987F892B809391004114510461047104D5
S113142009F072C02FEF3FEFA901ACC09D81943049
S113143009F065C09091C100987F892B8093C10009
S1131440411451046104710409F05EC02FEF3FEFB1
S1131450A901AAC068E478EE81E090E0A5019401B6
S11314600E94F31469017A0181E0C81AD108E108E5
S1131470F1089FEFC916D104E104F10409F008F45E
S1131480A3C064E274EF80E090E0A50194010E949F
S1131490F31469017A0181E0C81AD108E108F1085E
S11314A09FEFC916D104E104F10449F140F162E16E
S11314B07AE780E090E0A50194010E94F3146901A9
S11314C07A0181E0C81AD108E108F1088FEFC81643
S11314D0D104E104F10499F090F089819A81AB81FF
S11314E0BC812AE0B595A795979587952A95D1F75C
S11314F06C017D0121E0C21AD108E108F108411410
S113150051046104710471F0D801AA0FBB1FA30137
S113151092010E94181528EE33E040E050E00E944A
S1131520D11403C02FEF3FEFA9018D818130C1F0A9
S11315308CF481119EC0C7BC20931404309315040D
S1131540409316045093170480916E008260809338
S11315506E008FC09D819330A9F0943029F189C029
S1131560D0928900C092880020930D0430930E0419
S113157040930F045093100480916F008260809315
S11315806F0077C0D0929900C0929800209306040F
S11315903093070440930804509309048091710028
S11315A082608093710065C0C092CF002093FF03D6
S11315B0309300044093010450930204809172001C
S11315C080648093720055C0411451046104710415
S11315D009F09ACF4EC08FEFC816D104E104F1048C
S11315E069F160F162E17AE780E090E0A50194019D
S11315F00E94F31469017A0191E0C91AD108E10843
S1131600F1082FEFC216D104E104F104A9F0A0F00F
S113161089819A81AB81BC813AE0B595A79597956C
S113162087953A95D1F76C017D0121E0C21AD10862
S1131630E108F10885E0A2CE84E0A0CE83E09ECE4E
S11316402FEFC216D104E104F10489F080F062E1C5
S11316507AE780E090E0A50194010E94F314690107
S11316607A0191E0C91AD108E108F1082FCF84E08A
S113167082CE0F900F900F900F900F90DF91CF912B
S11316801F910F91FF90EF90DF90CF90BF90AF909C
S11316909F908F907F906F905F904F9008958130CE
S11316A049F028F0833061F0843081F0089510927D
S11316B06E00089580916F008D7F80936F00089570
S11316C0809171008D7F80937100089580917200E4
S11316D08F7B809372000895CF93C82F80917001FF
S11316E0C81307C0EAE2F1E084919FEF9093700180
S11316F001C08FEF0E944F0B60E08C2FCF910C94B0
S113170078121F920F920FB60F9211242F933F93CA
S11317104F935F936F937F938F939F93AF93BF93F5
S1131720EF93FF938091060490910704A09108041D
S1131730B0910904892B8A2B8B2B51F190910304CE
S1131740E0910404F09105048081892780838091CD
S1131750060490910704A0910804B0910904181696
S113176019061A061B060CF58091060490910704CD
S1131770A0910804B09109040197A109B1098093CB
S1131780060490930704A0930804B09309040DC0C1
S113179083E00E944F0B80910304E0910404F091D4
S11317A005049081809589238083FF91EF91BF91F7
S11317B0AF919F918F917F916F915F914F913F91E5
S11317C02F910F900FBE0F901F901895615030F01D
S11317D02091F100FC0120830196F8CF289884E63B
S11317E080932004089540911B0450911C0420917F
S11317F0190430911A0442175307B4F49091E80085
S11318009570E1F39091E80092FD19C08093F10086
S113181080911B0490911C0401968F739927892B46
S113182019F48EEF8093E80080911B0490911C04BE
S1131830019690931C0480931B0481E0089580E03A
S11318400895DF92EF92FF920F931F93CF93DF934C
S1131850D82EF92EE42E062F10E0C8010196880F29
S11318600E94F30B83E00E94F30BCD2DDF2D0C0FB0
S11318701D1FC017D10789F0E7FE03C0FE01849144
S113188001C088810E94F30BF82E80E00E94F30BC4
S11318908F2121968111EDCF01C081E0DF91CF919D
S11318A01F910F91FF90EF90DF9008958091D700E2
S11318B081608093D70080EA8093D80089B58061E5
S11318C089BD89B5826089BD09B400FEFDCF61E0A0
S11318D070E080E090E00E94A4108091D8008F7C9A
S11318E080618093D8008091E000807F8093E00045
S11318F00895CF93DF931F92CDB7DEB71982CE013F
S113190001960E946E050E94BD14BE016F5F7F4F59
S11319100E94381489810F90DF91CF9108952FB7D9
S1131920FC012083F89467706093E9000895CF93D5
S1131930DF931F92CDB7DEB7682FCE0101960E94C8
S11319408F0C8091F20099819FBF0F90DF91CF910E
S11319500895EF92FF920F931F93CF93DF931F92FB
S1131960CDB7DEB790911F04992311F057FF03C040
S11319708FEF9FEF29C08A017B01682FCE0101966A
S11319800E948F0C2091F20030E0021713070CF430
S11319909801822FF70194E6815038F028989093AB
S11319A020044091F1004193F7CF2115310521F036
S11319B08091F200882321F089818FBFC90104C07E
S11319C08BE68093E800F8CF0F90DF91CF911F91C1
S11319D00F91FF90EF900895CF93DF931F92CDB7AF
S11319E0DEB741E050E0BE016F5F7F4F0E94A90C5B
S11319F0019719F4898190E002C08FEF9FEF0F9057
S1131A00DF91CF910895CF93DF931F92CDB7DEB7C7
S1131A10682FCE0101960E948F0C9091E800892FC7
S1131A20807295FF04C09091F20080E4891B998133
S1131A309FBF0F90DF91CF9108955F926F927F9235
S1131A408F929F92AF92BF92CF92DF92EF92FF92CA
S1131A500F931F93CF93DF931F92CDB7DEB7982ECA
S1131A606B01B42E052F80911F04811103C08FEFE9
S1131A709FEF77C080911D0480FF05C08091E00036
S1131A8082608093E000EB2CF02EA12C8AEF882E4C
S1131A90892D8072682E892D8074582E9AE3792EB0
S1131AA0E114F10419F4AA2009F455C0892D0E9407
S1131AB0030D182F81110AC08A948820C1F261E0B5
S1131AC070E080E090E00E94A410EACF90E0E81675
S1131AD0F9060CF41E2D692DCE0101960E948F0C7F
S1131AE08091E80085FF34C0812F90E0E81AF90A5C
S1131AF0662029F01150A0F01092F100FBCFF601FE
S1131B0097FE0AC0115050F024912093F1003196B1
S1131B10F9CF21912093F1001150D8F7C80ED91EA6
S1131B20AA2019F07092E8000BC08091E80085FDAE
S1131B3009C07092E800AA24A394E114F10441F0CE
S1131B40A12C06C0E114F10419F451107092E800BC
S1131B5089818FBFA5CF5D9884E6809321048B2D66
S1131B60902F0F90DF91CF911F910F91FF90EF90E5
S1131B70DF90CF90BF90AF909F908F907F906F90A9
S1131B805F9008951092E90010921C0410921B04B7
S1131B9090931A04809319040895DF92EF92FF92B0
S1131BA00F931F93CF93DF93D82E8A017B01E40E0A
S1131BB0F51EEB01CE15DF0571F0D7FE03C0FE0163
S1131BC0849101C088810E94F30B21968111F2CF88
S1131BD08FEF9FEF01C0C801DF91CF911F910F914B
S1131BE0FF90EF90DF900895AF92BF92DF92EF9253
S1131BF0FF920F931F93CF93DF935C018B01EB0153
S1131C009BEFD92E2097C1F07E01C134D1051CF081
S1131C1080E4E82EF12C8091E80082FFFCCFC8011B
S1131C208C1B9D0B6E2D8A0D9B1D0E94E60BD09282
S1131C30E800CE19DF09E6CFC801DF91CF911F91EB
S1131C400F91FF90EF90DF90BF90AF9008951F9297
S1131C500F920FB60F921124CF92DF92EF92FF9260
S1131C600F931F932F933F934F935F936F937F93A0
S1131C708F939F93AF93BF93EF93FF93CF93DF9390
S1131C80CDB7DEB76C97DEBFCDBF1092E90080916F
S1131C90E80083FF17C168E0CE0145960E94E60B79
S1131CA082EF8093E8008D8987FF05C09091E8005A
S1131CB090FFFCCF03C09EEF9093E800982F90769E
S1131CC009F0D8C09E894F89588D2F89188D91119C
S1131CD00CC0803829F480911E048093F10002C066
S1131CE01092F1001092F100E6C0913051F481118C
S1131CF0E2C04130510509F0DEC080911E048D7FA1
S1131D000BC0933061F48111D6C04130510509F004
S1131D10D2C080911E04826080931E04CCC0953092
S1131D2049F48091E80080FFFCCF822F8068809383
S1131D30E300C1C0963009F070C0EB8CFC8C12300B
S1131D4069F580E090E00E94C20D0E94790C99E050
S1131D509E012F5F3F4F6901F901292F11922A95A6
S1131D60E9F799831A8391E09E8390EA98879AEF22
S1131D70998720911B0430911C04275F3F4F3C83BB
S1131D802B838D83C7010E94C20D49E050E0B60148
S1131D9080E00E94CD0D0E94790C8DC0C7010E9485
S1131DA0C20D0E94BD14BE016B5E7F4F0E94611480
S1131DB0009719F00CF07FC082C0113009F470C094
S1131DC0133009F07CC08F89882309F46CC08230F9
S1131DD029F440E860E189E491E006C0813039F4F7
S1131DE040E86BE08DE391E00E94210C56C0833003
S1131DF009F065C00E94BD148E010F5F1F4FB8012A
S1131E000E948014F80101900020E9F73197BF0186
S1131E10601B710B40E0C801E7CF973009F44FC055
S1131E20983021F481E08093F10045C0993009F0A5
S1131E3042C0837009F043C0E2E7F1E081E031E0A1
S1131E4096E32081211109C08EE78093EA00109265
S1131E50EA008F8980931F042EC08093E900309399
S1131E60EB0021912093EC009093ED008F5F87307D
S1131E7041F7EACF8B8D9C8D0E94C20D898D811113
S1131E8005C0CE0145960E94790507C00E94BD1485
S1131E90BE016B5E7F4F0E949F14882381F00BC0AC
S1131EA06BE271E002C06AE571E0FB01449150E02D
S1131EB080E80E94CD0D8EEF8093E80003C081E29C
S1131EC08093EB006C960FB6F894DEBF0FBECDBFC7
S1131ED0DF91CF91FF91EF91BF91AF919F918F913E
S1131EE07F916F915F914F913F912F911F910F912E
S1131EF0FF90EF90DF90CF900F900FBE0F901F9048
S1131F0018958093E9008091F200882319F08AE300
S1131F108093E80008951F920F920FB60F92112438
S1131F202F933F934F935F936F937F938F939F93DD
S1131F30AF93BF93CF93EF93FF93C091E100809150
S1131F40E100837F8093E100C3FF0FC01092E9009A
S1131F5081E08093EB001092EC0082E38093ED002B
S1131F6010921F0488E08093F000C2FF19C083E040
S1131F700E94810F80912104882339F080912104EB
S1131F80815080932104882389F18091200488233F
S1131F9039F080912004815080932004882341F1FA
S1131FA0C4FF10C08091E2008E7E81608093E200C5
S1131FB08091E1008F7E8093E10080911D048E7EEC
S1131FC0806111C0C0FF16C08091E2008E7E8061E6
S1131FD08093E2008091E1008E7E8093E100809105
S1131FE01D048E7E816080931D0404C05D9ACDCF54
S1131FF0289AD6CFFF91EF91CF91BF91AF919F9146
S11320008F917F916F915F914F913F912F910F909D
S11320100FBE0F901F90189510921F0410921E046B
S113202010921D040E94560C8091E1008E7E8093D4
S1132030E1008DE08093E200559A209AEEEFFFE7ED
S1132040859194918B3F9C4D19F481E080935E03BC
S113205008951F920F920FB60F9211242F933F935E
S11320608F939F93AF93BF93809123049091240403
S1132070A0912504B09126043091220423E0230F7B
S11320802D3720F40196A11DB11D05C026E8230FAC
S11320900296A11DB11D20932204809323049093E2
S11320A02404A0932504B0932604809127049091DE
S11320B02804A0912904B0912A040196A11DB11D00
S11320C08093270490932804A0932904B0932A04AE
S11320D0BF91AF919F918F913F912F910F900FBE20
S11320E00F901F9018952FB7F89460912304709166
S11320F0240480912504909126042FBF08953FB7AE
S1132100F8948091270490912804A0912904B09117
S11321102A0426B5A89B05C02F3F19F00196A11DDE
S1132120B11D3FBFBA2FA92F982F8827820F911D69
S1132130A11DB11DBC01CD0142E0660F771F881FB0
S1132140991F4A95D1F708958F929F92AF92BF92AB
S1132150CF92DF92EF92FF926B017C010E947F107D
S11321604B015C01C114D104E104F10401F10E94AA
S113217037140E947F10DC01CB0188199909AA0940
S1132180BB09883E9340A105B10560F321E0C21A62
S1132190D108E108F10888EE880E83E0981EA11C9E
S11321A0B11CC114D104E104F10419F7DBCFFF9091
S11321B0EF90DF90CF90BF90AF909F908F90089555
S11321C0789484B5826084BD84B5816084BD85B50E
S11321D0826085BD85B5816085BDEEE6F0E08081D5
S11321E081608083E1E8F0E01082808182608083F6
S11321F0808181608083E0E8F0E080818160808379
S1132200E1E9F0E080818260808380818160808365
S1132210E0E9F0E0808181608083E1ECF0E080819E
S113222084608083808182608083808181608083F8
S1132230E3ECF0E0808181608083E0ECF0E0808179
S113224082608083E2ECF0E0808181608083EAE751
S1132250F0E08081846080838081826080838081DB
S1132260816080838081806880830895823108F052
S11322708251E82FF0E0E25AFE4FE49180917B0016
S1132280E3FB222720F930E095E0220F331F9A95D3
S1132290E1F78F7D282B20937B008091780120E447
S11322A0829FC0011124E770E82BE0937C008091A9
S11322B07A00806480937A0080917A0086FDFCCF56
S11322C0809178002091790090E0922B08951F93DB
S11322D0CF93DF93182FEB0161E00E943C1220970B
S11322E011F460E004C0CF3FD10539F461E0812FDF
S11322F0DF91CF911F910C947812E12FF0E0E65911
S1132300FE4FE4918E2F90E0FC013197EF30F10500
S113231008F06CC0EA5AFF4F0C94121584B580681B
S113232084BDC7BD68C084B5806284BDC8BD63C0B8
S113233080918000806880938000D0938900C0934E
S1132340880059C080918000806280938000D0937F
S11323508B00C0938A004FC0809180008860809376
S11323608000D0938D00C0938C0045C08091900074
S1132370806880939000D0939900C09398003BC0EC
S113238080919000806280939000D0939B00C093D2
S11323909A0031C080919000886080939000D0931F
S11323A09D00C0939C0027C08091C00080688093EA
S11323B0C0008091C0008F7B8093C000C093CF0089
S11323C01AC08091C00080628093C000C093D00086
S11323D012C08091C20088608093C2008091C200C4
S11323E08B7F8093C200C093D20005C0C038D10552
S11323F00CF07CCF76CFDF91CF911F91089590E0C0
S1132400FC013197EF30F105B0F5EB59FF4F0C9417
S11324101215809180008F7703C0809180008F7D9A
S113242080938000089580918000877FF9CF84B5E0
S11324308F7702C084B58F7D84BD0895809190000C
S11324408F7707C0809190008F7D03C080919000AA
S1132450877F8093900008958091C0008F7703C098
S11324608091C0008F7D8093C00008958091C20048
S1132470877F8093C2000895CF93DF9390E0FC019F
S1132480E757FE4F2491FC01E855FE4F84918823C1
S113249061F190E0880F991FFC01ED51FE4FC59149
S11324A0D491FC01EB52FE4FA591B491611109C086
S11324B09FB7F8948881209582238883EC912E23FA
S11324C00BC0623061F49FB7F8948881322F309545
S11324D083238883EC912E2B2C939FBF06C08FB748
S11324E0F894E8812E2B28838FBFDF91CF91089534
S11324F01F93CF93DF93282F30E0F901E659FE4F65
S11325008491F901E757FE4FD491F901E855FE4F44
S1132510C491CC23C1F0162F81110E94FF11EC2F1E
S1132520F0E0EE0FFF1FEB52FE4FA591B4919FB761
S1132530F894111104C08C91D095D82302C0EC9169
S1132540DE2BDC939FBFDF91CF911F910895CF9332
S1132550DF93282F30E0F901E659FE4F8491F90109
S1132560E757FE4FD491F901E855FE4FC491CC23AF
S113257091F081110E94FF11EC2FF0E0EE0FFF1F8C
S1132580E953FE4FA591B491EC91ED2381E090E0E5
S113259021F480E002C080E090E0DF91CF910895C3
S11325A00F931F9390E0FC01E757FE4F7491FC01D9
S11325B0E855FE4FE491662311F0672F01C060E0F7
S11325C0F0E0EE0FFF1FE953FE4F859194918901CE
S11325D09A013F70462F672F0E94270161157105EC
S11325E08105910549F0DC01CB010196A11DB11DC6
S11325F0BC01CD019F7003C060E070E0CB011F916E
S11326000F9108954F925F926F927F928F929F9253
S1132610AF92BF92CF92DF92EF92FF920F931F93EC
S1132620CF93DF9349015A0190E0FC01E757FE4F35
S11326301491FC01E855FE4FC491662311F0012F5B
S113264001C000E00E947F106B017C01D0E0CC0F40
S1132650DD1FC953DE4FFE01A591B4918C918123F6
S113266008131EC00E947F10DC01CB018C199D0948
S1132670AE09BF0988169906AA06BB0660F760E092
S113268070E0CB0133C00E947F10DC01CB018C19B8
S11326909D09AE09BF0988169906AA06BB0678F3F8
S11326A0FE01A591B4918C9181230813ECCF0E9473
S11326B07F102B013C01FE01A591B4918C918123E3
S11326C008130EC00E947F10DC01CB018C199D09F8
S11326D0AE09BF0988169906AA06BB0660F7CFCFD4
S11326E00E947F106419750986099709DF91CF91BB
S11326F01F910F91FF90EF90DF90CF90BF90AF901C
S11327009F908F907F906F905F904F900895CF929D
S1132710DF92EF92FF920F931F93CF93DF93F82EE4
S1132720D62FE42E07E010E0C0E087E0C82ED12CBD
S113273061E08D2F0E9478128F2DE1100AC00E9453
S1132740A7129601201B310B01C0880F2A95EAF7C6
S113275007C00E94A712002E01C0880F0A94EAF74E
S1132760C82B60E08D2F0E9478120150110900F7E8
S11327708C2FDF91CF911F910F91FF90EF90DF90FD
S1132780CF900895BF92CF92DF92EF92FF920F9372
S11327901F93CF93DF93C82ED62EB42EC7E0D0E07C
S11327A0022F10E087E0E82EF12CB11005C0C7011C
S11327B08C1B9D0BB80102C0B8018C2F02C075950B
S11327C067958A95E2F761708C2D0E94781261E01A
S11327D08D2D0E94781260E08D2D0E947812219731
S11327E020F7DF91CF911F910F91FF90EF90DF9031
S11327F0CF90BF900895CF92DF92EF92FF92611530
S113280071058105910549F06B017C010E947D15DC
S1132810A70196010E94F31403C060E070E0CB01AD
S1132820FF90EF90DF90CF900895CF92DF92EF92D8
S1132830FF920F931F93621773078407950784F41D
S113284089019A016B017C01C901B8016C197D09E8
S11328508E099F090E94FB136C0D7D1D8E1D9F1D0B
S11328601F910F91FF90EF90DF90CF9008950895FE
S1132870EF92FF920F931F93CF93DF937B01FC01A1
S1132880C281D38100E010E0209781F0E881F981D2
S11328900280F381E02DB701CE01099597FD08C0B0
S11328A0080F191F0884D985C02DEECFC80102C0B6
S11328B08FEF9FEFDF91CF911F910F91FF90EF90DA
S11328C008950F931F93CF93DF938B01FC01C28173
S11328D0D381209771F0E881F9810480F581E02D9E
S11328E0B801CE010995009731F40884D985C02D2B
S11328F0F0CF80E090E0DF91CF911F910F91089588
S11329000F931F93CF93DF938B01FC01C281D3817B
S1132910209771F0E881F9810680F781E02DB801F4
S1132920CE010995080F111D0884D985C02DF0CF5B
S1132930F8011082DF91CF911F910F9108950F93A9
S11329401F93CF93DF938B01FC01C281D381209726
S113295071F0E881F9810190F081E02DB801CE0198
S11329600995811105C00884D985C02DF0CF80E078
S1132970DF91CF911F910F91089580912F048111C0
S11329800DC082E080932B0484E080932C04109289
S11329902E0410922D0481E080932F048BE294E0A6
S11329A00895A1E21A2EAA1BBB1BFD010DC0AA1F8C
S11329B0BB1FEE1FFF1FA217B307E407F50720F0A4
S11329C0A21BB30BE40BF50B661F771F881F991F1F
S11329D01A9469F760957095809590959B01AC0168
S11329E0BD01CF010895052E97FB1EF400940E94AB
S11329F00A1557FD07D00E94D11407FC03D04EF4EA
S1132A000C940A1550954095309521953F4F4F4FA2
S1132A105F4F089590958095709561957F4F8F4F86
S1132A209F4F0895EE0FFF1F0590F491E02D099438
S1132A300E942315A59F900DB49F900DA49F800D17
S1132A40911D11240895A29FB001B39FC001A39FBB
S1132A50700D811D1124911DB29F700D811D1124D3
S1132A60911D08958F929F92AF92BF92CF92DF9261
S1132A70EF92FF92CF93DF93EC01688179818A8191
S1132A809B81611571058105910521F464E279ED5D
S1132A908BE597E02DE133EF41E050E00E94F31421
S1132AA049015A019B01AC01A7EAB1E40E9418153F
S1132AB06B017C01ACEEB4EFA50194010E94D71523
S1132AC0DC01CB018C0D9D1DAE1DBF1DB7FF03C0E6
S1132AD00197A109B04888839983AA83BB83BC0169
S1132AE0CD019F77DF91CF91FF90EF90DF90CF9052
S1132AF0BF90AF909F908F9008958F929F92AF92C6
S1132B00BF92CF92DF92EF92FF9260910001709199
S1132B100101809102019091030161157105810504
S1132B20910521F464E279ED8BE597E02DE133EF33
S1132B3041E050E00E94F31449015A019B01AC01A9
S1132B40A7EAB1E40E9418156B017C01ACEEB4EF66
S1132B50A50194010E94D715DC01CB018C0D9D1DAC
S1132B60AE1DBF1DB7FF03C00197A109B0488093F4
S1132B70000190930101A0930201B0930301BC01F1
S1132B80CD019F77FF90EF90DF90CF90BF90AF90F3
S1132B909F908F900895609300017093010180933A
S1132BA00201909303010895B7FF0C9418150E9435
S10F2BB01815821B930B0895F894FFCFB6
S1132BBC0100000041024D0247025B0269027802E7
S1132BCC0000000000000000000000000A050805D9
S1132BDCF6040000000000000000000000000000EB
S1132BEC000000006C018201A901D0017001780180
S1132BFC00000000000000000000000000000000C5
S1132C0C00000000000000000000000000000000B4
S1132C1C00000000FFFFFFFF00E1000000000000C7
S1132C2CFF00C180810000000100000000AD0480A1
S1132C3C0451047F0454045C047004000000000C70
S1132C4C055805330538053B054B052205000000E6
S1132C5C008206F3074406C906160630062206004F
S9030000FC
